{"contracts/NonfungibleTokenPositionDescriptor.sol":{"NonfungibleTokenPositionDescriptor":{"abi":[{"inputs":[{"internalType":"address","name":"_WETH9","type":"address"}],"stateMutability":"nonpayable","type":"constructor"},{"inputs":[],"name":"WETH9","outputs":[{"internalType":"address","name":"","type":"address"}],"stateMutability":"view","type":"function"},{"inputs":[{"internalType":"address","name":"token0","type":"address"},{"internalType":"address","name":"token1","type":"address"},{"internalType":"uint256","name":"chainId","type":"uint256"}],"name":"flipRatio","outputs":[{"internalType":"bool","name":"","type":"bool"}],"stateMutability":"view","type":"function"},{"inputs":[{"internalType":"address","name":"token","type":"address"},{"internalType":"uint256","name":"chainId","type":"uint256"}],"name":"tokenRatioPriority","outputs":[{"internalType":"int256","name":"","type":"int256"}],"stateMutability":"view","type":"function"},{"inputs":[{"internalType":"contract INonfungiblePositionManager","name":"positionManager","type":"address"},{"internalType":"uint256","name":"tokenId","type":"uint256"}],"name":"tokenURI","outputs":[{"internalType":"string","name":"","type":"string"}],"stateMutability":"view","type":"function"}],"evm":{"bytecode":{"linkReferences":{"@uniswap/v3-periphery/contracts/libraries/NFTDescriptor.sol":{"NFTDescriptor":[{"length":20,"start":1251}]}},"object":"60a060405234801561001057600080fd5b506040516112df3803806112df83398101604081905261002f91610044565b60601b6001600160601b031916608052610072565b600060208284031215610055578081fd5b81516001600160a01b038116811461006b578182fd5b9392505050565b60805160601c61124c6100936000398060d15280610116525061124c6000f3fe608060405234801561001057600080fd5b506004361061004c5760003560e01c80634aa4a4fc146100515780637e5af7711461006f5780639d7b0ea81461008f578063e9dc6375146100af575b600080fd5b6100596100cf565b6040516100669190611075565b60405180910390f35b61008261007d366004610d7b565b6100f3565b6040516100669190611089565b6100a261009d366004610dbb565b610112565b6040516100669190611094565b6100c26100bd366004610dbb565b610257565b604051610066919061109d565b7f000000000000000000000000000000000000000000000000000000000000000081565b60006100ff8383610112565b6101098584610112565b13949350505050565b60007f00000000000000000000000000000000000000000000000000000000000000006001600160a01b0316836001600160a01b031614156101575750606319610251565b816001141561024d576001600160a01b03831673a0b86991c6218b36c1d19d4a2e9eb0ce3606eb48141561018e575061012c610251565b6001600160a01b03831673dac17f958d2ee523a2206206994597c13d831ec714156101bb575060c8610251565b6001600160a01b038316736b175474e89094c44da98b954eedeac495271d0f14156101e857506064610251565b6001600160a01b038316738daebade922df735c38c80c7ebd708af50815faa1415610216575060c719610251565b6001600160a01b038316732260fac5e5542a773aa44fbcfedf7c193bc2c5991415610245575061012b19610251565b506000610251565b5060005b92915050565b60606000806000806000876001600160a01b03166399fbab88886040518263ffffffff1660e01b815260040161028d9190611094565b6101806040518083038186803b1580156102a657600080fd5b505afa1580156102ba573d6000803e3d6000fd5b505050506040513d601f19601f820116820180604052508101906102de9190610f40565b5050505050965096509650965096505050600061039c896001600160a01b031663c45a01556040518163ffffffff1660e01b815260040160206040518083038186803b15801561032d57600080fd5b505afa158015610341573d6000803e3d6000fd5b505050506040513d601f19601f820116820180604052508101906103659190610d58565b6040518060600160405280896001600160a01b03168152602001886001600160a01b031681526020018762ffffff168152506106db565b905060006103ad878761007d6107bf565b9050600081156103bd57876103bf565b865b9050600082156103cf57876103d1565b885b90506000846001600160a01b0316633850c7bd6040518163ffffffff1660e01b815260040160e06040518083038186803b15801561040e57600080fd5b505afa158015610422573d6000803e3d6000fd5b505050506040513d601f19601f820116820180604052508101906104469190610e97565b505050505091505073__$9f7657269f07f7887db7d96b90c3a13a65$__63c49917d7604051806101c001604052808f8152602001866001600160a01b03168152602001856001600160a01b031681526020016104a1876107c3565b81526020016104af866107c3565b8152602001866001600160a01b031663313ce5676040518163ffffffff1660e01b815260040160206040518083038186803b1580156104ed57600080fd5b505afa158015610501573d6000803e3d6000fd5b505050506040513d601f19601f820116820180604052508101906105259190610f26565b60ff168152602001856001600160a01b031663313ce5676040518163ffffffff1660e01b815260040160206040518083038186803b15801561056657600080fd5b505afa15801561057a573d6000803e3d6000fd5b505050506040513d601f19601f8201168201806040525081019061059e9190610f26565b60ff16815260200187151581526020018a60020b81526020018960020b81526020018460020b8152602001886001600160a01b031663d0c93a7c6040518163ffffffff1660e01b815260040160206040518083038186803b15801561060257600080fd5b505afa158015610616573d6000803e3d6000fd5b505050506040513d601f19601f8201168201806040525081019061063a9190610de6565b60020b81526020018b62ffffff168152602001886001600160a01b03168152506040518263ffffffff1660e01b815260040161067691906110b0565b60006040518083038186803b15801561068e57600080fd5b505af41580156106a2573d6000803e3d6000fd5b505050506040513d6000823e601f3d908101601f191682016040526106ca9190810190610e00565b9d9c50505050505050505050505050565b600081602001516001600160a01b031682600001516001600160a01b03161061070357600080fd5b50805160208083015160409384015184516001600160a01b0394851681850152939091168385015262ffffff166060808401919091528351808403820181526080840185528051908301206001600160f81b031960a085015294901b6bffffffffffffffffffffffff191660a183015260b58201939093527fe34f199b19b2b4f47f68442619d555527d244f78a3297ea89325f843f87b8b5460d5808301919091528251808303909101815260f5909101909152805191012090565b4690565b606060006107d8836395d89b4160e01b6107fd565b90508051600014156107f5576107ed83610a25565b9150506107f8565b90505b919050565b60408051600481526024810182526020810180516001600160e01b03166001600160e01b031985161781529151815160609360009384936001600160a01b03891693919290918291908083835b602083106108695780518252601f19909201916020918201910161084a565b6001836020036101000a038019825116818451168082178552505050505050905001915050600060405180830381855afa9150503d80600081146108c9576040519150601f19603f3d011682016040523d82523d6000602084013e6108ce565b606091505b50915091508115806108df57508051155b156108fd576040518060200160405280600081525092505050610251565b80516020141561093557600081806020019051602081101561091e57600080fd5b5051905061092b81610a32565b9350505050610251565b604081511115610a0d5780806020019051602081101561095457600080fd5b810190808051604051939291908464010000000082111561097457600080fd5b90830190602082018581111561098957600080fd5b82516401000000008111828201881017156109a357600080fd5b82525081516020918201929091019080838360005b838110156109d05781810151838201526020016109b8565b50505050905090810190601f1680156109fd5780820380516001836020036101000a031916815260200191505b5060405250505092505050610251565b50506040805160208101909152600081529392505050565b60606107f5826006610b5a565b604080516020808252818301909252606091600091906020820181803683370190505090506000805b6020811015610abc576000858260208110610a7257fe5b1a60f81b90506001600160f81b0319811615610ab35780848481518110610a9557fe5b60200101906001600160f81b031916908160001a9053506001909201915b50600101610a5b565b5060008167ffffffffffffffff81118015610ad657600080fd5b506040519080825280601f01601f191660200182016040528015610b01576020820181803683370190505b50905060005b82811015610b5157838181518110610b1b57fe5b602001015160f81c60f81b828281518110610b3257fe5b60200101906001600160f81b031916908160001a905350600101610b07565b50949350505050565b606060028206158015610b6d5750600082115b8015610b7a575060288211155b610bcb576040805162461bcd60e51b815260206004820152601e60248201527f41646472657373537472696e675574696c3a20494e56414c49445f4c454e0000604482015290519081900360640190fd5b60008267ffffffffffffffff81118015610be457600080fd5b506040519080825280601f01601f191660200182016040528015610c0f576020820181803683370190505b5090506001600160a01b03841660005b60028504811015610cb357600860138290030282901c600f600482901c1660f082168203610c4c82610cbd565b868560020281518110610c5b57fe5b60200101906001600160f81b031916908160001a905350610c7b81610cbd565b868560020260010181518110610c8d57fe5b60200101906001600160f81b031916908160001a9053505060019092019150610c1f9050565b5090949350505050565b6000600a8260ff161015610cd857506030810160f81b6107f8565b506037810160f81b6107f8565b80516107f8816111fe565b8051600281900b81146107f857600080fd5b80516fffffffffffffffffffffffffffffffff811681146107f857600080fd5b805161ffff811681146107f857600080fd5b805162ffffff811681146107f857600080fd5b805160ff811681146107f857600080fd5b600060208284031215610d69578081fd5b8151610d74816111fe565b9392505050565b600080600060608486031215610d8f578182fd5b8335610d9a816111fe565b92506020840135610daa816111fe565b929592945050506040919091013590565b60008060408385031215610dcd578182fd5b8235610dd8816111fe565b946020939093013593505050565b600060208284031215610df7578081fd5b610d7482610cf0565b600060208284031215610e11578081fd5b815167ffffffffffffffff80821115610e28578283fd5b818401915084601f830112610e3b578283fd5b815181811115610e4757fe5b604051601f8201601f191681016020018381118282101715610e6557fe5b604052818152838201602001871015610e7c578485fd5b610e8d8260208301602087016111ce565b9695505050505050565b600080600080600080600060e0888a031215610eb1578283fd5b8751610ebc816111fe565b9650610eca60208901610cf0565b9550610ed860408901610d22565b9450610ee660608901610d22565b9350610ef460808901610d22565b9250610f0260a08901610d47565b915060c08801518015158114610f16578182fd5b8091505092959891949750929550565b600060208284031215610f37578081fd5b610d7482610d47565b6000806000806000806000806000806000806101808d8f031215610f62578485fd5b8c516bffffffffffffffffffffffff81168114610f7d578586fd5b9b50610f8b60208e01610ce5565b9a50610f9960408e01610ce5565b9950610fa760608e01610ce5565b9850610fb560808e01610d34565b9750610fc360a08e01610cf0565b9650610fd160c08e01610cf0565b9550610fdf60e08e01610d02565b94506101008d015193506101208d01519250610ffe6101408e01610d02565b915061100d6101608e01610d02565b90509295989b509295989b509295989b565b6001600160a01b03169052565b15159052565b60020b9052565b600081518084526110518160208601602086016111ce565b601f01601f19169290920160200192915050565b62ffffff169052565b60ff169052565b6001600160a01b0391909116815260200190565b901515815260200190565b90815260200190565b600060208252610d746020830184611039565b6000602082528251602083015260208301516110cf604084018261101f565b5060408301516110e2606084018261101f565b5060608301516101c08060808501526110ff6101e0850183611039565b91506080850151601f198584030160a086015261111c8382611039565b92505060a085015161113160c086018261106e565b5060c085015161114460e086018261106e565b5060e08501516101006111598187018361102c565b860151905061012061116d86820183611032565b860151905061014061118186820183611032565b860151905061016061119586820183611032565b86015190506101806111a986820183611032565b86015190506101a06111bd86820183611065565b8601519050610cb38583018261101f565b60005b838110156111e95781810151838201526020016111d1565b838111156111f8576000848401525b50505050565b6001600160a01b038116811461121357600080fd5b5056fea2646970667358221220a27705bb50bca39773d3103b4c5d3c5e39e670d0b320f9c73effd89d58b63cb564736f6c63430007060033","opcodes":"PUSH1 0xA0 PUSH1 0x40 MSTORE CALLVALUE DUP1 ISZERO PUSH2 0x10 JUMPI PUSH1 0x0 DUP1 REVERT JUMPDEST POP PUSH1 0x40 MLOAD PUSH2 0x12DF CODESIZE SUB DUP1 PUSH2 0x12DF DUP4 CODECOPY DUP2 ADD PUSH1 0x40 DUP2 SWAP1 MSTORE PUSH2 0x2F SWAP2 PUSH2 0x44 JUMP JUMPDEST PUSH1 0x60 SHL PUSH1 0x1 PUSH1 0x1 PUSH1 0x60 SHL SUB NOT AND PUSH1 0x80 MSTORE PUSH2 0x72 JUMP JUMPDEST PUSH1 0x0 PUSH1 0x20 DUP3 DUP5 SUB SLT ISZERO PUSH2 0x55 JUMPI DUP1 DUP2 REVERT JUMPDEST DUP2 MLOAD PUSH1 0x1 PUSH1 0x1 PUSH1 0xA0 SHL SUB DUP2 AND DUP2 EQ PUSH2 0x6B JUMPI DUP2 DUP3 REVERT JUMPDEST SWAP4 SWAP3 POP POP POP JUMP JUMPDEST PUSH1 0x80 MLOAD PUSH1 0x60 SHR PUSH2 0x124C PUSH2 0x93 PUSH1 0x0 CODECOPY DUP1 PUSH1 0xD1 MSTORE DUP1 PUSH2 0x116 MSTORE POP PUSH2 0x124C PUSH1 0x0 RETURN INVALID PUSH1 0x80 PUSH1 0x40 MSTORE CALLVALUE DUP1 ISZERO PUSH2 0x10 JUMPI PUSH1 0x0 DUP1 REVERT JUMPDEST POP PUSH1 0x4 CALLDATASIZE LT PUSH2 0x4C JUMPI PUSH1 0x0 CALLDATALOAD PUSH1 0xE0 SHR DUP1 PUSH4 0x4AA4A4FC EQ PUSH2 0x51 JUMPI DUP1 PUSH4 0x7E5AF771 EQ PUSH2 0x6F JUMPI DUP1 PUSH4 0x9D7B0EA8 EQ PUSH2 0x8F JUMPI DUP1 PUSH4 0xE9DC6375 EQ PUSH2 0xAF JUMPI JUMPDEST PUSH1 0x0 DUP1 REVERT JUMPDEST PUSH2 0x59 PUSH2 0xCF JUMP JUMPDEST PUSH1 0x40 MLOAD PUSH2 0x66 SWAP2 SWAP1 PUSH2 0x1075 JUMP JUMPDEST PUSH1 0x40 MLOAD DUP1 SWAP2 SUB SWAP1 RETURN JUMPDEST PUSH2 0x82 PUSH2 0x7D CALLDATASIZE PUSH1 0x4 PUSH2 0xD7B JUMP JUMPDEST PUSH2 0xF3 JUMP JUMPDEST PUSH1 0x40 MLOAD PUSH2 0x66 SWAP2 SWAP1 PUSH2 0x1089 JUMP JUMPDEST PUSH2 0xA2 PUSH2 0x9D CALLDATASIZE PUSH1 0x4 PUSH2 0xDBB JUMP JUMPDEST PUSH2 0x112 JUMP JUMPDEST PUSH1 0x40 MLOAD PUSH2 0x66 SWAP2 SWAP1 PUSH2 0x1094 JUMP JUMPDEST PUSH2 0xC2 PUSH2 0xBD CALLDATASIZE PUSH1 0x4 PUSH2 0xDBB JUMP JUMPDEST PUSH2 0x257 JUMP JUMPDEST PUSH1 0x40 MLOAD PUSH2 0x66 SWAP2 SWAP1 PUSH2 0x109D JUMP JUMPDEST PUSH32 0x0 DUP2 JUMP JUMPDEST PUSH1 0x0 PUSH2 0xFF DUP4 DUP4 PUSH2 0x112 JUMP JUMPDEST PUSH2 0x109 DUP6 DUP5 PUSH2 0x112 JUMP JUMPDEST SGT SWAP5 SWAP4 POP POP POP POP JUMP JUMPDEST PUSH1 0x0 PUSH32 0x0 PUSH1 0x1 PUSH1 0x1 PUSH1 0xA0 SHL SUB AND DUP4 PUSH1 0x1 PUSH1 0x1 PUSH1 0xA0 SHL SUB AND EQ ISZERO PUSH2 0x157 JUMPI POP PUSH1 0x63 NOT PUSH2 0x251 JUMP JUMPDEST DUP2 PUSH1 0x1 EQ ISZERO PUSH2 0x24D JUMPI PUSH1 0x1 PUSH1 0x1 PUSH1 0xA0 SHL SUB DUP4 AND PUSH20 0xA0B86991C6218B36C1D19D4A2E9EB0CE3606EB48 EQ ISZERO PUSH2 0x18E JUMPI POP PUSH2 0x12C PUSH2 0x251 JUMP JUMPDEST PUSH1 0x1 PUSH1 0x1 PUSH1 0xA0 SHL SUB DUP4 AND PUSH20 0xDAC17F958D2EE523A2206206994597C13D831EC7 EQ ISZERO PUSH2 0x1BB JUMPI POP PUSH1 0xC8 PUSH2 0x251 JUMP JUMPDEST PUSH1 0x1 PUSH1 0x1 PUSH1 0xA0 SHL SUB DUP4 AND PUSH20 0x6B175474E89094C44DA98B954EEDEAC495271D0F EQ ISZERO PUSH2 0x1E8 JUMPI POP PUSH1 0x64 PUSH2 0x251 JUMP JUMPDEST PUSH1 0x1 PUSH1 0x1 PUSH1 0xA0 SHL SUB DUP4 AND PUSH20 0x8DAEBADE922DF735C38C80C7EBD708AF50815FAA EQ ISZERO PUSH2 0x216 JUMPI POP PUSH1 0xC7 NOT PUSH2 0x251 JUMP JUMPDEST PUSH1 0x1 PUSH1 0x1 PUSH1 0xA0 SHL SUB DUP4 AND PUSH20 0x2260FAC5E5542A773AA44FBCFEDF7C193BC2C599 EQ ISZERO PUSH2 0x245 JUMPI POP PUSH2 0x12B NOT PUSH2 0x251 JUMP JUMPDEST POP PUSH1 0x0 PUSH2 0x251 JUMP JUMPDEST POP PUSH1 0x0 JUMPDEST SWAP3 SWAP2 POP POP JUMP JUMPDEST PUSH1 0x60 PUSH1 0x0 DUP1 PUSH1 0x0 DUP1 PUSH1 0x0 DUP8 PUSH1 0x1 PUSH1 0x1 PUSH1 0xA0 SHL SUB AND PUSH4 0x99FBAB88 DUP9 PUSH1 0x40 MLOAD DUP3 PUSH4 0xFFFFFFFF AND PUSH1 0xE0 SHL DUP2 MSTORE PUSH1 0x4 ADD PUSH2 0x28D SWAP2 SWAP1 PUSH2 0x1094 JUMP JUMPDEST PUSH2 0x180 PUSH1 0x40 MLOAD DUP1 DUP4 SUB DUP2 DUP7 DUP1 EXTCODESIZE ISZERO DUP1 ISZERO PUSH2 0x2A6 JUMPI PUSH1 0x0 DUP1 REVERT JUMPDEST POP GAS STATICCALL ISZERO DUP1 ISZERO PUSH2 0x2BA JUMPI RETURNDATASIZE PUSH1 0x0 DUP1 RETURNDATACOPY RETURNDATASIZE PUSH1 0x0 REVERT JUMPDEST POP POP POP POP PUSH1 0x40 MLOAD RETURNDATASIZE PUSH1 0x1F NOT PUSH1 0x1F DUP3 ADD AND DUP3 ADD DUP1 PUSH1 0x40 MSTORE POP DUP2 ADD SWAP1 PUSH2 0x2DE SWAP2 SWAP1 PUSH2 0xF40 JUMP JUMPDEST POP POP POP POP POP SWAP7 POP SWAP7 POP SWAP7 POP SWAP7 POP SWAP7 POP POP POP PUSH1 0x0 PUSH2 0x39C DUP10 PUSH1 0x1 PUSH1 0x1 PUSH1 0xA0 SHL SUB AND PUSH4 0xC45A0155 PUSH1 0x40 MLOAD DUP2 PUSH4 0xFFFFFFFF AND PUSH1 0xE0 SHL DUP2 MSTORE PUSH1 0x4 ADD PUSH1 0x20 PUSH1 0x40 MLOAD DUP1 DUP4 SUB DUP2 DUP7 DUP1 EXTCODESIZE ISZERO DUP1 ISZERO PUSH2 0x32D JUMPI PUSH1 0x0 DUP1 REVERT JUMPDEST POP GAS STATICCALL ISZERO DUP1 ISZERO PUSH2 0x341 JUMPI RETURNDATASIZE PUSH1 0x0 DUP1 RETURNDATACOPY RETURNDATASIZE PUSH1 0x0 REVERT JUMPDEST POP POP POP POP PUSH1 0x40 MLOAD RETURNDATASIZE PUSH1 0x1F NOT PUSH1 0x1F DUP3 ADD AND DUP3 ADD DUP1 PUSH1 0x40 MSTORE POP DUP2 ADD SWAP1 PUSH2 0x365 SWAP2 SWAP1 PUSH2 0xD58 JUMP JUMPDEST PUSH1 0x40 MLOAD DUP1 PUSH1 0x60 ADD PUSH1 0x40 MSTORE DUP1 DUP10 PUSH1 0x1 PUSH1 0x1 PUSH1 0xA0 SHL SUB AND DUP2 MSTORE PUSH1 0x20 ADD DUP9 PUSH1 0x1 PUSH1 0x1 PUSH1 0xA0 SHL SUB AND DUP2 MSTORE PUSH1 0x20 ADD DUP8 PUSH3 0xFFFFFF AND DUP2 MSTORE POP PUSH2 0x6DB JUMP JUMPDEST SWAP1 POP PUSH1 0x0 PUSH2 0x3AD DUP8 DUP8 PUSH2 0x7D PUSH2 0x7BF JUMP JUMPDEST SWAP1 POP PUSH1 0x0 DUP2 ISZERO PUSH2 0x3BD JUMPI DUP8 PUSH2 0x3BF JUMP JUMPDEST DUP7 JUMPDEST SWAP1 POP PUSH1 0x0 DUP3 ISZERO PUSH2 0x3CF JUMPI DUP8 PUSH2 0x3D1 JUMP JUMPDEST DUP9 JUMPDEST SWAP1 POP PUSH1 0x0 DUP5 PUSH1 0x1 PUSH1 0x1 PUSH1 0xA0 SHL SUB AND PUSH4 0x3850C7BD PUSH1 0x40 MLOAD DUP2 PUSH4 0xFFFFFFFF AND PUSH1 0xE0 SHL DUP2 MSTORE PUSH1 0x4 ADD PUSH1 0xE0 PUSH1 0x40 MLOAD DUP1 DUP4 SUB DUP2 DUP7 DUP1 EXTCODESIZE ISZERO DUP1 ISZERO PUSH2 0x40E JUMPI PUSH1 0x0 DUP1 REVERT JUMPDEST POP GAS STATICCALL ISZERO DUP1 ISZERO PUSH2 0x422 JUMPI RETURNDATASIZE PUSH1 0x0 DUP1 RETURNDATACOPY RETURNDATASIZE PUSH1 0x0 REVERT JUMPDEST POP POP POP POP PUSH1 0x40 MLOAD RETURNDATASIZE PUSH1 0x1F NOT PUSH1 0x1F DUP3 ADD AND DUP3 ADD DUP1 PUSH1 0x40 MSTORE POP DUP2 ADD SWAP1 PUSH2 0x446 SWAP2 SWAP1 PUSH2 0xE97 JUMP JUMPDEST POP POP POP POP POP SWAP2 POP POP PUSH20 0x0 PUSH4 0xC49917D7 PUSH1 0x40 MLOAD DUP1 PUSH2 0x1C0 ADD PUSH1 0x40 MSTORE DUP1 DUP16 DUP2 MSTORE PUSH1 0x20 ADD DUP7 PUSH1 0x1 PUSH1 0x1 PUSH1 0xA0 SHL SUB AND DUP2 MSTORE PUSH1 0x20 ADD DUP6 PUSH1 0x1 PUSH1 0x1 PUSH1 0xA0 SHL SUB AND DUP2 MSTORE PUSH1 0x20 ADD PUSH2 0x4A1 DUP8 PUSH2 0x7C3 JUMP JUMPDEST DUP2 MSTORE PUSH1 0x20 ADD PUSH2 0x4AF DUP7 PUSH2 0x7C3 JUMP JUMPDEST DUP2 MSTORE PUSH1 0x20 ADD DUP7 PUSH1 0x1 PUSH1 0x1 PUSH1 0xA0 SHL SUB AND PUSH4 0x313CE567 PUSH1 0x40 MLOAD DUP2 PUSH4 0xFFFFFFFF AND PUSH1 0xE0 SHL DUP2 MSTORE PUSH1 0x4 ADD PUSH1 0x20 PUSH1 0x40 MLOAD DUP1 DUP4 SUB DUP2 DUP7 DUP1 EXTCODESIZE ISZERO DUP1 ISZERO PUSH2 0x4ED JUMPI PUSH1 0x0 DUP1 REVERT JUMPDEST POP GAS STATICCALL ISZERO DUP1 ISZERO PUSH2 0x501 JUMPI RETURNDATASIZE PUSH1 0x0 DUP1 RETURNDATACOPY RETURNDATASIZE PUSH1 0x0 REVERT JUMPDEST POP POP POP POP PUSH1 0x40 MLOAD RETURNDATASIZE PUSH1 0x1F NOT PUSH1 0x1F DUP3 ADD AND DUP3 ADD DUP1 PUSH1 0x40 MSTORE POP DUP2 ADD SWAP1 PUSH2 0x525 SWAP2 SWAP1 PUSH2 0xF26 JUMP JUMPDEST PUSH1 0xFF AND DUP2 MSTORE PUSH1 0x20 ADD DUP6 PUSH1 0x1 PUSH1 0x1 PUSH1 0xA0 SHL SUB AND PUSH4 0x313CE567 PUSH1 0x40 MLOAD DUP2 PUSH4 0xFFFFFFFF AND PUSH1 0xE0 SHL DUP2 MSTORE PUSH1 0x4 ADD PUSH1 0x20 PUSH1 0x40 MLOAD DUP1 DUP4 SUB DUP2 DUP7 DUP1 EXTCODESIZE ISZERO DUP1 ISZERO PUSH2 0x566 JUMPI PUSH1 0x0 DUP1 REVERT JUMPDEST POP GAS STATICCALL ISZERO DUP1 ISZERO PUSH2 0x57A JUMPI RETURNDATASIZE PUSH1 0x0 DUP1 RETURNDATACOPY RETURNDATASIZE PUSH1 0x0 REVERT JUMPDEST POP POP POP POP PUSH1 0x40 MLOAD RETURNDATASIZE PUSH1 0x1F NOT PUSH1 0x1F DUP3 ADD AND DUP3 ADD DUP1 PUSH1 0x40 MSTORE POP DUP2 ADD SWAP1 PUSH2 0x59E SWAP2 SWAP1 PUSH2 0xF26 JUMP JUMPDEST PUSH1 0xFF AND DUP2 MSTORE PUSH1 0x20 ADD DUP8 ISZERO ISZERO DUP2 MSTORE PUSH1 0x20 ADD DUP11 PUSH1 0x2 SIGNEXTEND DUP2 MSTORE PUSH1 0x20 ADD DUP10 PUSH1 0x2 SIGNEXTEND DUP2 MSTORE PUSH1 0x20 ADD DUP5 PUSH1 0x2 SIGNEXTEND DUP2 MSTORE PUSH1 0x20 ADD DUP9 PUSH1 0x1 PUSH1 0x1 PUSH1 0xA0 SHL SUB AND PUSH4 0xD0C93A7C PUSH1 0x40 MLOAD DUP2 PUSH4 0xFFFFFFFF AND PUSH1 0xE0 SHL DUP2 MSTORE PUSH1 0x4 ADD PUSH1 0x20 PUSH1 0x40 MLOAD DUP1 DUP4 SUB DUP2 DUP7 DUP1 EXTCODESIZE ISZERO DUP1 ISZERO PUSH2 0x602 JUMPI PUSH1 0x0 DUP1 REVERT JUMPDEST POP GAS STATICCALL ISZERO DUP1 ISZERO PUSH2 0x616 JUMPI RETURNDATASIZE PUSH1 0x0 DUP1 RETURNDATACOPY RETURNDATASIZE PUSH1 0x0 REVERT JUMPDEST POP POP POP POP PUSH1 0x40 MLOAD RETURNDATASIZE PUSH1 0x1F NOT PUSH1 0x1F DUP3 ADD AND DUP3 ADD DUP1 PUSH1 0x40 MSTORE POP DUP2 ADD SWAP1 PUSH2 0x63A SWAP2 SWAP1 PUSH2 0xDE6 JUMP JUMPDEST PUSH1 0x2 SIGNEXTEND DUP2 MSTORE PUSH1 0x20 ADD DUP12 PUSH3 0xFFFFFF AND DUP2 MSTORE PUSH1 0x20 ADD DUP9 PUSH1 0x1 PUSH1 0x1 PUSH1 0xA0 SHL SUB AND DUP2 MSTORE POP PUSH1 0x40 MLOAD DUP3 PUSH4 0xFFFFFFFF AND PUSH1 0xE0 SHL DUP2 MSTORE PUSH1 0x4 ADD PUSH2 0x676 SWAP2 SWAP1 PUSH2 0x10B0 JUMP JUMPDEST PUSH1 0x0 PUSH1 0x40 MLOAD DUP1 DUP4 SUB DUP2 DUP7 DUP1 EXTCODESIZE ISZERO DUP1 ISZERO PUSH2 0x68E JUMPI PUSH1 0x0 DUP1 REVERT JUMPDEST POP GAS DELEGATECALL ISZERO DUP1 ISZERO PUSH2 0x6A2 JUMPI RETURNDATASIZE PUSH1 0x0 DUP1 RETURNDATACOPY RETURNDATASIZE PUSH1 0x0 REVERT JUMPDEST POP POP POP POP PUSH1 0x40 MLOAD RETURNDATASIZE PUSH1 0x0 DUP3 RETURNDATACOPY PUSH1 0x1F RETURNDATASIZE SWAP1 DUP2 ADD PUSH1 0x1F NOT AND DUP3 ADD PUSH1 0x40 MSTORE PUSH2 0x6CA SWAP2 SWAP1 DUP2 ADD SWAP1 PUSH2 0xE00 JUMP JUMPDEST SWAP14 SWAP13 POP POP POP POP POP POP POP POP POP POP POP POP POP JUMP JUMPDEST PUSH1 0x0 DUP2 PUSH1 0x20 ADD MLOAD PUSH1 0x1 PUSH1 0x1 PUSH1 0xA0 SHL SUB AND DUP3 PUSH1 0x0 ADD MLOAD PUSH1 0x1 PUSH1 0x1 PUSH1 0xA0 SHL SUB AND LT PUSH2 0x703 JUMPI PUSH1 0x0 DUP1 REVERT JUMPDEST POP DUP1 MLOAD PUSH1 0x20 DUP1 DUP4 ADD MLOAD PUSH1 0x40 SWAP4 DUP5 ADD MLOAD DUP5 MLOAD PUSH1 0x1 PUSH1 0x1 PUSH1 0xA0 SHL SUB SWAP5 DUP6 AND DUP2 DUP6 ADD MSTORE SWAP4 SWAP1 SWAP2 AND DUP4 DUP6 ADD MSTORE PUSH3 0xFFFFFF AND PUSH1 0x60 DUP1 DUP5 ADD SWAP2 SWAP1 SWAP2 MSTORE DUP4 MLOAD DUP1 DUP5 SUB DUP3 ADD DUP2 MSTORE PUSH1 0x80 DUP5 ADD DUP6 MSTORE DUP1 MLOAD SWAP1 DUP4 ADD KECCAK256 PUSH1 0x1 PUSH1 0x1 PUSH1 0xF8 SHL SUB NOT PUSH1 0xA0 DUP6 ADD MSTORE SWAP5 SWAP1 SHL PUSH12 0xFFFFFFFFFFFFFFFFFFFFFFFF NOT AND PUSH1 0xA1 DUP4 ADD MSTORE PUSH1 0xB5 DUP3 ADD SWAP4 SWAP1 SWAP4 MSTORE PUSH32 0xE34F199B19B2B4F47F68442619D555527D244F78A3297EA89325F843F87B8B54 PUSH1 0xD5 DUP1 DUP4 ADD SWAP2 SWAP1 SWAP2 MSTORE DUP3 MLOAD DUP1 DUP4 SUB SWAP1 SWAP2 ADD DUP2 MSTORE PUSH1 0xF5 SWAP1 SWAP2 ADD SWAP1 SWAP2 MSTORE DUP1 MLOAD SWAP2 ADD KECCAK256 SWAP1 JUMP JUMPDEST CHAINID SWAP1 JUMP JUMPDEST PUSH1 0x60 PUSH1 0x0 PUSH2 0x7D8 DUP4 PUSH4 0x95D89B41 PUSH1 0xE0 SHL PUSH2 0x7FD JUMP JUMPDEST SWAP1 POP DUP1 MLOAD PUSH1 0x0 EQ ISZERO PUSH2 0x7F5 JUMPI PUSH2 0x7ED DUP4 PUSH2 0xA25 JUMP JUMPDEST SWAP2 POP POP PUSH2 0x7F8 JUMP JUMPDEST SWAP1 POP JUMPDEST SWAP2 SWAP1 POP JUMP JUMPDEST PUSH1 0x40 DUP1 MLOAD PUSH1 0x4 DUP2 MSTORE PUSH1 0x24 DUP2 ADD DUP3 MSTORE PUSH1 0x20 DUP2 ADD DUP1 MLOAD PUSH1 0x1 PUSH1 0x1 PUSH1 0xE0 SHL SUB AND PUSH1 0x1 PUSH1 0x1 PUSH1 0xE0 SHL SUB NOT DUP6 AND OR DUP2 MSTORE SWAP2 MLOAD DUP2 MLOAD PUSH1 0x60 SWAP4 PUSH1 0x0 SWAP4 DUP5 SWAP4 PUSH1 0x1 PUSH1 0x1 PUSH1 0xA0 SHL SUB DUP10 AND SWAP4 SWAP2 SWAP3 SWAP1 SWAP2 DUP3 SWAP2 SWAP1 DUP1 DUP4 DUP4 JUMPDEST PUSH1 0x20 DUP4 LT PUSH2 0x869 JUMPI DUP1 MLOAD DUP3 MSTORE PUSH1 0x1F NOT SWAP1 SWAP3 ADD SWAP2 PUSH1 0x20 SWAP2 DUP3 ADD SWAP2 ADD PUSH2 0x84A JUMP JUMPDEST PUSH1 0x1 DUP4 PUSH1 0x20 SUB PUSH2 0x100 EXP SUB DUP1 NOT DUP3 MLOAD AND DUP2 DUP5 MLOAD AND DUP1 DUP3 OR DUP6 MSTORE POP POP POP POP POP POP SWAP1 POP ADD SWAP2 POP POP PUSH1 0x0 PUSH1 0x40 MLOAD DUP1 DUP4 SUB DUP2 DUP6 GAS STATICCALL SWAP2 POP POP RETURNDATASIZE DUP1 PUSH1 0x0 DUP2 EQ PUSH2 0x8C9 JUMPI PUSH1 0x40 MLOAD SWAP2 POP PUSH1 0x1F NOT PUSH1 0x3F RETURNDATASIZE ADD AND DUP3 ADD PUSH1 0x40 MSTORE RETURNDATASIZE DUP3 MSTORE RETURNDATASIZE PUSH1 0x0 PUSH1 0x20 DUP5 ADD RETURNDATACOPY PUSH2 0x8CE JUMP JUMPDEST PUSH1 0x60 SWAP2 POP JUMPDEST POP SWAP2 POP SWAP2 POP DUP2 ISZERO DUP1 PUSH2 0x8DF JUMPI POP DUP1 MLOAD ISZERO JUMPDEST ISZERO PUSH2 0x8FD JUMPI PUSH1 0x40 MLOAD DUP1 PUSH1 0x20 ADD PUSH1 0x40 MSTORE DUP1 PUSH1 0x0 DUP2 MSTORE POP SWAP3 POP POP POP PUSH2 0x251 JUMP JUMPDEST DUP1 MLOAD PUSH1 0x20 EQ ISZERO PUSH2 0x935 JUMPI PUSH1 0x0 DUP2 DUP1 PUSH1 0x20 ADD SWAP1 MLOAD PUSH1 0x20 DUP2 LT ISZERO PUSH2 0x91E JUMPI PUSH1 0x0 DUP1 REVERT JUMPDEST POP MLOAD SWAP1 POP PUSH2 0x92B DUP2 PUSH2 0xA32 JUMP JUMPDEST SWAP4 POP POP POP POP PUSH2 0x251 JUMP JUMPDEST PUSH1 0x40 DUP2 MLOAD GT ISZERO PUSH2 0xA0D JUMPI DUP1 DUP1 PUSH1 0x20 ADD SWAP1 MLOAD PUSH1 0x20 DUP2 LT ISZERO PUSH2 0x954 JUMPI PUSH1 0x0 DUP1 REVERT JUMPDEST DUP2 ADD SWAP1 DUP1 DUP1 MLOAD PUSH1 0x40 MLOAD SWAP4 SWAP3 SWAP2 SWAP1 DUP5 PUSH5 0x100000000 DUP3 GT ISZERO PUSH2 0x974 JUMPI PUSH1 0x0 DUP1 REVERT JUMPDEST SWAP1 DUP4 ADD SWAP1 PUSH1 0x20 DUP3 ADD DUP6 DUP2 GT ISZERO PUSH2 0x989 JUMPI PUSH1 0x0 DUP1 REVERT JUMPDEST DUP3 MLOAD PUSH5 0x100000000 DUP2 GT DUP3 DUP3 ADD DUP9 LT OR ISZERO PUSH2 0x9A3 JUMPI PUSH1 0x0 DUP1 REVERT JUMPDEST DUP3 MSTORE POP DUP2 MLOAD PUSH1 0x20 SWAP2 DUP3 ADD SWAP3 SWAP1 SWAP2 ADD SWAP1 DUP1 DUP4 DUP4 PUSH1 0x0 JUMPDEST DUP4 DUP2 LT ISZERO PUSH2 0x9D0 JUMPI DUP2 DUP2 ADD MLOAD DUP4 DUP3 ADD MSTORE PUSH1 0x20 ADD PUSH2 0x9B8 JUMP JUMPDEST POP POP POP POP SWAP1 POP SWAP1 DUP2 ADD SWAP1 PUSH1 0x1F AND DUP1 ISZERO PUSH2 0x9FD JUMPI DUP1 DUP3 SUB DUP1 MLOAD PUSH1 0x1 DUP4 PUSH1 0x20 SUB PUSH2 0x100 EXP SUB NOT AND DUP2 MSTORE PUSH1 0x20 ADD SWAP2 POP JUMPDEST POP PUSH1 0x40 MSTORE POP POP POP SWAP3 POP POP POP PUSH2 0x251 JUMP JUMPDEST POP POP PUSH1 0x40 DUP1 MLOAD PUSH1 0x20 DUP2 ADD SWAP1 SWAP2 MSTORE PUSH1 0x0 DUP2 MSTORE SWAP4 SWAP3 POP POP POP JUMP JUMPDEST PUSH1 0x60 PUSH2 0x7F5 DUP3 PUSH1 0x6 PUSH2 0xB5A JUMP JUMPDEST PUSH1 0x40 DUP1 MLOAD PUSH1 0x20 DUP1 DUP3 MSTORE DUP2 DUP4 ADD SWAP1 SWAP3 MSTORE PUSH1 0x60 SWAP2 PUSH1 0x0 SWAP2 SWAP1 PUSH1 0x20 DUP3 ADD DUP2 DUP1 CALLDATASIZE DUP4 CALLDATACOPY ADD SWAP1 POP POP SWAP1 POP PUSH1 0x0 DUP1 JUMPDEST PUSH1 0x20 DUP2 LT ISZERO PUSH2 0xABC JUMPI PUSH1 0x0 DUP6 DUP3 PUSH1 0x20 DUP2 LT PUSH2 0xA72 JUMPI INVALID JUMPDEST BYTE PUSH1 0xF8 SHL SWAP1 POP PUSH1 0x1 PUSH1 0x1 PUSH1 0xF8 SHL SUB NOT DUP2 AND ISZERO PUSH2 0xAB3 JUMPI DUP1 DUP5 DUP5 DUP2 MLOAD DUP2 LT PUSH2 0xA95 JUMPI INVALID JUMPDEST PUSH1 0x20 ADD ADD SWAP1 PUSH1 0x1 PUSH1 0x1 PUSH1 0xF8 SHL SUB NOT AND SWAP1 DUP2 PUSH1 0x0 BYTE SWAP1 MSTORE8 POP PUSH1 0x1 SWAP1 SWAP3 ADD SWAP2 JUMPDEST POP PUSH1 0x1 ADD PUSH2 0xA5B JUMP JUMPDEST POP PUSH1 0x0 DUP2 PUSH8 0xFFFFFFFFFFFFFFFF DUP2 GT DUP1 ISZERO PUSH2 0xAD6 JUMPI PUSH1 0x0 DUP1 REVERT JUMPDEST POP PUSH1 0x40 MLOAD SWAP1 DUP1 DUP3 MSTORE DUP1 PUSH1 0x1F ADD PUSH1 0x1F NOT AND PUSH1 0x20 ADD DUP3 ADD PUSH1 0x40 MSTORE DUP1 ISZERO PUSH2 0xB01 JUMPI PUSH1 0x20 DUP3 ADD DUP2 DUP1 CALLDATASIZE DUP4 CALLDATACOPY ADD SWAP1 POP JUMPDEST POP SWAP1 POP PUSH1 0x0 JUMPDEST DUP3 DUP2 LT ISZERO PUSH2 0xB51 JUMPI DUP4 DUP2 DUP2 MLOAD DUP2 LT PUSH2 0xB1B JUMPI INVALID JUMPDEST PUSH1 0x20 ADD ADD MLOAD PUSH1 0xF8 SHR PUSH1 0xF8 SHL DUP3 DUP3 DUP2 MLOAD DUP2 LT PUSH2 0xB32 JUMPI INVALID JUMPDEST PUSH1 0x20 ADD ADD SWAP1 PUSH1 0x1 PUSH1 0x1 PUSH1 0xF8 SHL SUB NOT AND SWAP1 DUP2 PUSH1 0x0 BYTE SWAP1 MSTORE8 POP PUSH1 0x1 ADD PUSH2 0xB07 JUMP JUMPDEST POP SWAP5 SWAP4 POP POP POP POP JUMP JUMPDEST PUSH1 0x60 PUSH1 0x2 DUP3 MOD ISZERO DUP1 ISZERO PUSH2 0xB6D JUMPI POP PUSH1 0x0 DUP3 GT JUMPDEST DUP1 ISZERO PUSH2 0xB7A JUMPI POP PUSH1 0x28 DUP3 GT ISZERO JUMPDEST PUSH2 0xBCB JUMPI PUSH1 0x40 DUP1 MLOAD PUSH3 0x461BCD PUSH1 0xE5 SHL DUP2 MSTORE PUSH1 0x20 PUSH1 0x4 DUP3 ADD MSTORE PUSH1 0x1E PUSH1 0x24 DUP3 ADD MSTORE PUSH32 0x41646472657373537472696E675574696C3A20494E56414C49445F4C454E0000 PUSH1 0x44 DUP3 ADD MSTORE SWAP1 MLOAD SWAP1 DUP2 SWAP1 SUB PUSH1 0x64 ADD SWAP1 REVERT JUMPDEST PUSH1 0x0 DUP3 PUSH8 0xFFFFFFFFFFFFFFFF DUP2 GT DUP1 ISZERO PUSH2 0xBE4 JUMPI PUSH1 0x0 DUP1 REVERT JUMPDEST POP PUSH1 0x40 MLOAD SWAP1 DUP1 DUP3 MSTORE DUP1 PUSH1 0x1F ADD PUSH1 0x1F NOT AND PUSH1 0x20 ADD DUP3 ADD PUSH1 0x40 MSTORE DUP1 ISZERO PUSH2 0xC0F JUMPI PUSH1 0x20 DUP3 ADD DUP2 DUP1 CALLDATASIZE DUP4 CALLDATACOPY ADD SWAP1 POP JUMPDEST POP SWAP1 POP PUSH1 0x1 PUSH1 0x1 PUSH1 0xA0 SHL SUB DUP5 AND PUSH1 0x0 JUMPDEST PUSH1 0x2 DUP6 DIV DUP2 LT ISZERO PUSH2 0xCB3 JUMPI PUSH1 0x8 PUSH1 0x13 DUP3 SWAP1 SUB MUL DUP3 SWAP1 SHR PUSH1 0xF PUSH1 0x4 DUP3 SWAP1 SHR AND PUSH1 0xF0 DUP3 AND DUP3 SUB PUSH2 0xC4C DUP3 PUSH2 0xCBD JUMP JUMPDEST DUP7 DUP6 PUSH1 0x2 MUL DUP2 MLOAD DUP2 LT PUSH2 0xC5B JUMPI INVALID JUMPDEST PUSH1 0x20 ADD ADD SWAP1 PUSH1 0x1 PUSH1 0x1 PUSH1 0xF8 SHL SUB NOT AND SWAP1 DUP2 PUSH1 0x0 BYTE SWAP1 MSTORE8 POP PUSH2 0xC7B DUP2 PUSH2 0xCBD JUMP JUMPDEST DUP7 DUP6 PUSH1 0x2 MUL PUSH1 0x1 ADD DUP2 MLOAD DUP2 LT PUSH2 0xC8D JUMPI INVALID JUMPDEST PUSH1 0x20 ADD ADD SWAP1 PUSH1 0x1 PUSH1 0x1 PUSH1 0xF8 SHL SUB NOT AND SWAP1 DUP2 PUSH1 0x0 BYTE SWAP1 MSTORE8 POP POP PUSH1 0x1 SWAP1 SWAP3 ADD SWAP2 POP PUSH2 0xC1F SWAP1 POP JUMP JUMPDEST POP SWAP1 SWAP5 SWAP4 POP POP POP POP JUMP JUMPDEST PUSH1 0x0 PUSH1 0xA DUP3 PUSH1 0xFF AND LT ISZERO PUSH2 0xCD8 JUMPI POP PUSH1 0x30 DUP2 ADD PUSH1 0xF8 SHL PUSH2 0x7F8 JUMP JUMPDEST POP PUSH1 0x37 DUP2 ADD PUSH1 0xF8 SHL PUSH2 0x7F8 JUMP JUMPDEST DUP1 MLOAD PUSH2 0x7F8 DUP2 PUSH2 0x11FE JUMP JUMPDEST DUP1 MLOAD PUSH1 0x2 DUP2 SWAP1 SIGNEXTEND DUP2 EQ PUSH2 0x7F8 JUMPI PUSH1 0x0 DUP1 REVERT JUMPDEST DUP1 MLOAD PUSH16 0xFFFFFFFFFFFFFFFFFFFFFFFFFFFFFFFF DUP2 AND DUP2 EQ PUSH2 0x7F8 JUMPI PUSH1 0x0 DUP1 REVERT JUMPDEST DUP1 MLOAD PUSH2 0xFFFF DUP2 AND DUP2 EQ PUSH2 0x7F8 JUMPI PUSH1 0x0 DUP1 REVERT JUMPDEST DUP1 MLOAD PUSH3 0xFFFFFF DUP2 AND DUP2 EQ PUSH2 0x7F8 JUMPI PUSH1 0x0 DUP1 REVERT JUMPDEST DUP1 MLOAD PUSH1 0xFF DUP2 AND DUP2 EQ PUSH2 0x7F8 JUMPI PUSH1 0x0 DUP1 REVERT JUMPDEST PUSH1 0x0 PUSH1 0x20 DUP3 DUP5 SUB SLT ISZERO PUSH2 0xD69 JUMPI DUP1 DUP2 REVERT JUMPDEST DUP2 MLOAD PUSH2 0xD74 DUP2 PUSH2 0x11FE JUMP JUMPDEST SWAP4 SWAP3 POP POP POP JUMP JUMPDEST PUSH1 0x0 DUP1 PUSH1 0x0 PUSH1 0x60 DUP5 DUP7 SUB SLT ISZERO PUSH2 0xD8F JUMPI DUP2 DUP3 REVERT JUMPDEST DUP4 CALLDATALOAD PUSH2 0xD9A DUP2 PUSH2 0x11FE JUMP JUMPDEST SWAP3 POP PUSH1 0x20 DUP5 ADD CALLDATALOAD PUSH2 0xDAA DUP2 PUSH2 0x11FE JUMP JUMPDEST SWAP3 SWAP6 SWAP3 SWAP5 POP POP POP PUSH1 0x40 SWAP2 SWAP1 SWAP2 ADD CALLDATALOAD SWAP1 JUMP JUMPDEST PUSH1 0x0 DUP1 PUSH1 0x40 DUP4 DUP6 SUB SLT ISZERO PUSH2 0xDCD JUMPI DUP2 DUP3 REVERT JUMPDEST DUP3 CALLDATALOAD PUSH2 0xDD8 DUP2 PUSH2 0x11FE JUMP JUMPDEST SWAP5 PUSH1 0x20 SWAP4 SWAP1 SWAP4 ADD CALLDATALOAD SWAP4 POP POP POP JUMP JUMPDEST PUSH1 0x0 PUSH1 0x20 DUP3 DUP5 SUB SLT ISZERO PUSH2 0xDF7 JUMPI DUP1 DUP2 REVERT JUMPDEST PUSH2 0xD74 DUP3 PUSH2 0xCF0 JUMP JUMPDEST PUSH1 0x0 PUSH1 0x20 DUP3 DUP5 SUB SLT ISZERO PUSH2 0xE11 JUMPI DUP1 DUP2 REVERT JUMPDEST DUP2 MLOAD PUSH8 0xFFFFFFFFFFFFFFFF DUP1 DUP3 GT ISZERO PUSH2 0xE28 JUMPI DUP3 DUP4 REVERT JUMPDEST DUP2 DUP5 ADD SWAP2 POP DUP5 PUSH1 0x1F DUP4 ADD SLT PUSH2 0xE3B JUMPI DUP3 DUP4 REVERT JUMPDEST DUP2 MLOAD DUP2 DUP2 GT ISZERO PUSH2 0xE47 JUMPI INVALID JUMPDEST PUSH1 0x40 MLOAD PUSH1 0x1F DUP3 ADD PUSH1 0x1F NOT AND DUP2 ADD PUSH1 0x20 ADD DUP4 DUP2 GT DUP3 DUP3 LT OR ISZERO PUSH2 0xE65 JUMPI INVALID JUMPDEST PUSH1 0x40 MSTORE DUP2 DUP2 MSTORE DUP4 DUP3 ADD PUSH1 0x20 ADD DUP8 LT ISZERO PUSH2 0xE7C JUMPI DUP5 DUP6 REVERT JUMPDEST PUSH2 0xE8D DUP3 PUSH1 0x20 DUP4 ADD PUSH1 0x20 DUP8 ADD PUSH2 0x11CE JUMP JUMPDEST SWAP7 SWAP6 POP POP POP POP POP POP JUMP JUMPDEST PUSH1 0x0 DUP1 PUSH1 0x0 DUP1 PUSH1 0x0 DUP1 PUSH1 0x0 PUSH1 0xE0 DUP9 DUP11 SUB SLT ISZERO PUSH2 0xEB1 JUMPI DUP3 DUP4 REVERT JUMPDEST DUP8 MLOAD PUSH2 0xEBC DUP2 PUSH2 0x11FE JUMP JUMPDEST SWAP7 POP PUSH2 0xECA PUSH1 0x20 DUP10 ADD PUSH2 0xCF0 JUMP JUMPDEST SWAP6 POP PUSH2 0xED8 PUSH1 0x40 DUP10 ADD PUSH2 0xD22 JUMP JUMPDEST SWAP5 POP PUSH2 0xEE6 PUSH1 0x60 DUP10 ADD PUSH2 0xD22 JUMP JUMPDEST SWAP4 POP PUSH2 0xEF4 PUSH1 0x80 DUP10 ADD PUSH2 0xD22 JUMP JUMPDEST SWAP3 POP PUSH2 0xF02 PUSH1 0xA0 DUP10 ADD PUSH2 0xD47 JUMP JUMPDEST SWAP2 POP PUSH1 0xC0 DUP9 ADD MLOAD DUP1 ISZERO ISZERO DUP2 EQ PUSH2 0xF16 JUMPI DUP2 DUP3 REVERT JUMPDEST DUP1 SWAP2 POP POP SWAP3 SWAP6 SWAP9 SWAP2 SWAP5 SWAP8 POP SWAP3 SWAP6 POP JUMP JUMPDEST PUSH1 0x0 PUSH1 0x20 DUP3 DUP5 SUB SLT ISZERO PUSH2 0xF37 JUMPI DUP1 DUP2 REVERT JUMPDEST PUSH2 0xD74 DUP3 PUSH2 0xD47 JUMP JUMPDEST PUSH1 0x0 DUP1 PUSH1 0x0 DUP1 PUSH1 0x0 DUP1 PUSH1 0x0 DUP1 PUSH1 0x0 DUP1 PUSH1 0x0 DUP1 PUSH2 0x180 DUP14 DUP16 SUB SLT ISZERO PUSH2 0xF62 JUMPI DUP5 DUP6 REVERT JUMPDEST DUP13 MLOAD PUSH12 0xFFFFFFFFFFFFFFFFFFFFFFFF DUP2 AND DUP2 EQ PUSH2 0xF7D JUMPI DUP6 DUP7 REVERT JUMPDEST SWAP12 POP PUSH2 0xF8B PUSH1 0x20 DUP15 ADD PUSH2 0xCE5 JUMP JUMPDEST SWAP11 POP PUSH2 0xF99 PUSH1 0x40 DUP15 ADD PUSH2 0xCE5 JUMP JUMPDEST SWAP10 POP PUSH2 0xFA7 PUSH1 0x60 DUP15 ADD PUSH2 0xCE5 JUMP JUMPDEST SWAP9 POP PUSH2 0xFB5 PUSH1 0x80 DUP15 ADD PUSH2 0xD34 JUMP JUMPDEST SWAP8 POP PUSH2 0xFC3 PUSH1 0xA0 DUP15 ADD PUSH2 0xCF0 JUMP JUMPDEST SWAP7 POP PUSH2 0xFD1 PUSH1 0xC0 DUP15 ADD PUSH2 0xCF0 JUMP JUMPDEST SWAP6 POP PUSH2 0xFDF PUSH1 0xE0 DUP15 ADD PUSH2 0xD02 JUMP JUMPDEST SWAP5 POP PUSH2 0x100 DUP14 ADD MLOAD SWAP4 POP PUSH2 0x120 DUP14 ADD MLOAD SWAP3 POP PUSH2 0xFFE PUSH2 0x140 DUP15 ADD PUSH2 0xD02 JUMP JUMPDEST SWAP2 POP PUSH2 0x100D PUSH2 0x160 DUP15 ADD PUSH2 0xD02 JUMP JUMPDEST SWAP1 POP SWAP3 SWAP6 SWAP9 SWAP12 POP SWAP3 SWAP6 SWAP9 SWAP12 POP SWAP3 SWAP6 SWAP9 SWAP12 JUMP JUMPDEST PUSH1 0x1 PUSH1 0x1 PUSH1 0xA0 SHL SUB AND SWAP1 MSTORE JUMP JUMPDEST ISZERO ISZERO SWAP1 MSTORE JUMP JUMPDEST PUSH1 0x2 SIGNEXTEND SWAP1 MSTORE JUMP JUMPDEST PUSH1 0x0 DUP2 MLOAD DUP1 DUP5 MSTORE PUSH2 0x1051 DUP2 PUSH1 0x20 DUP7 ADD PUSH1 0x20 DUP7 ADD PUSH2 0x11CE JUMP JUMPDEST PUSH1 0x1F ADD PUSH1 0x1F NOT AND SWAP3 SWAP1 SWAP3 ADD PUSH1 0x20 ADD SWAP3 SWAP2 POP POP JUMP JUMPDEST PUSH3 0xFFFFFF AND SWAP1 MSTORE JUMP JUMPDEST PUSH1 0xFF AND SWAP1 MSTORE JUMP JUMPDEST PUSH1 0x1 PUSH1 0x1 PUSH1 0xA0 SHL SUB SWAP2 SWAP1 SWAP2 AND DUP2 MSTORE PUSH1 0x20 ADD SWAP1 JUMP JUMPDEST SWAP1 ISZERO ISZERO DUP2 MSTORE PUSH1 0x20 ADD SWAP1 JUMP JUMPDEST SWAP1 DUP2 MSTORE PUSH1 0x20 ADD SWAP1 JUMP JUMPDEST PUSH1 0x0 PUSH1 0x20 DUP3 MSTORE PUSH2 0xD74 PUSH1 0x20 DUP4 ADD DUP5 PUSH2 0x1039 JUMP JUMPDEST PUSH1 0x0 PUSH1 0x20 DUP3 MSTORE DUP3 MLOAD PUSH1 0x20 DUP4 ADD MSTORE PUSH1 0x20 DUP4 ADD MLOAD PUSH2 0x10CF PUSH1 0x40 DUP5 ADD DUP3 PUSH2 0x101F JUMP JUMPDEST POP PUSH1 0x40 DUP4 ADD MLOAD PUSH2 0x10E2 PUSH1 0x60 DUP5 ADD DUP3 PUSH2 0x101F JUMP JUMPDEST POP PUSH1 0x60 DUP4 ADD MLOAD PUSH2 0x1C0 DUP1 PUSH1 0x80 DUP6 ADD MSTORE PUSH2 0x10FF PUSH2 0x1E0 DUP6 ADD DUP4 PUSH2 0x1039 JUMP JUMPDEST SWAP2 POP PUSH1 0x80 DUP6 ADD MLOAD PUSH1 0x1F NOT DUP6 DUP5 SUB ADD PUSH1 0xA0 DUP7 ADD MSTORE PUSH2 0x111C DUP4 DUP3 PUSH2 0x1039 JUMP JUMPDEST SWAP3 POP POP PUSH1 0xA0 DUP6 ADD MLOAD PUSH2 0x1131 PUSH1 0xC0 DUP7 ADD DUP3 PUSH2 0x106E JUMP JUMPDEST POP PUSH1 0xC0 DUP6 ADD MLOAD PUSH2 0x1144 PUSH1 0xE0 DUP7 ADD DUP3 PUSH2 0x106E JUMP JUMPDEST POP PUSH1 0xE0 DUP6 ADD MLOAD PUSH2 0x100 PUSH2 0x1159 DUP2 DUP8 ADD DUP4 PUSH2 0x102C JUMP JUMPDEST DUP7 ADD MLOAD SWAP1 POP PUSH2 0x120 PUSH2 0x116D DUP7 DUP3 ADD DUP4 PUSH2 0x1032 JUMP JUMPDEST DUP7 ADD MLOAD SWAP1 POP PUSH2 0x140 PUSH2 0x1181 DUP7 DUP3 ADD DUP4 PUSH2 0x1032 JUMP JUMPDEST DUP7 ADD MLOAD SWAP1 POP PUSH2 0x160 PUSH2 0x1195 DUP7 DUP3 ADD DUP4 PUSH2 0x1032 JUMP JUMPDEST DUP7 ADD MLOAD SWAP1 POP PUSH2 0x180 PUSH2 0x11A9 DUP7 DUP3 ADD DUP4 PUSH2 0x1032 JUMP JUMPDEST DUP7 ADD MLOAD SWAP1 POP PUSH2 0x1A0 PUSH2 0x11BD DUP7 DUP3 ADD DUP4 PUSH2 0x1065 JUMP JUMPDEST DUP7 ADD MLOAD SWAP1 POP PUSH2 0xCB3 DUP6 DUP4 ADD DUP3 PUSH2 0x101F JUMP JUMPDEST PUSH1 0x0 JUMPDEST DUP4 DUP2 LT ISZERO PUSH2 0x11E9 JUMPI DUP2 DUP2 ADD MLOAD DUP4 DUP3 ADD MSTORE PUSH1 0x20 ADD PUSH2 0x11D1 JUMP JUMPDEST DUP4 DUP2 GT ISZERO PUSH2 0x11F8 JUMPI PUSH1 0x0 DUP5 DUP5 ADD MSTORE JUMPDEST POP POP POP POP JUMP JUMPDEST PUSH1 0x1 PUSH1 0x1 PUSH1 0xA0 SHL SUB DUP2 AND DUP2 EQ PUSH2 0x1213 JUMPI PUSH1 0x0 DUP1 REVERT JUMPDEST POP JUMP INVALID LOG2 PUSH5 0x6970667358 0x22 SLT KECCAK256 LOG2 PUSH24 0x5BB50BCA39773D3103B4C5D3C5E39E670D0B320F9C73EFF 0xD8 SWAP14 PC 0xB6 EXTCODECOPY 0xB5 PUSH5 0x736F6C6343 STOP SMOD MOD STOP CALLER "},"methodIdentifiers":{"WETH9()":"4aa4a4fc","flipRatio(address,address,uint256)":"7e5af771","tokenRatioPriority(address,uint256)":"9d7b0ea8","tokenURI(address,uint256)":"e9dc6375"}}}}}