{"contracts/SwapExamples.sol":{"SwapExamples":{"abi":[{"inputs":[{"internalType":"contract ISwapRouter","name":"_swapRouter","type":"address"}],"stateMutability":"nonpayable","type":"constructor"},{"inputs":[],"name":"MOR","outputs":[{"internalType":"address","name":"","type":"address"}],"stateMutability":"view","type":"function"},{"inputs":[],"name":"WETH","outputs":[{"internalType":"address","name":"","type":"address"}],"stateMutability":"view","type":"function"},{"inputs":[],"name":"poolFee","outputs":[{"internalType":"uint24","name":"","type":"uint24"}],"stateMutability":"view","type":"function"},{"inputs":[{"internalType":"uint256","name":"amountIn","type":"uint256"}],"name":"swapExactInputSingle","outputs":[{"internalType":"uint256","name":"amountOut","type":"uint256"}],"stateMutability":"nonpayable","type":"function"},{"inputs":[{"internalType":"uint256","name":"amountOut","type":"uint256"},{"internalType":"uint256","name":"amountInMaximum","type":"uint256"}],"name":"swapExactOutputSingle","outputs":[{"internalType":"uint256","name":"amountIn","type":"uint256"}],"stateMutability":"nonpayable","type":"function"},{"inputs":[],"name":"swapRouter","outputs":[{"internalType":"contract ISwapRouter","name":"","type":"address"}],"stateMutability":"view","type":"function"}],"evm":{"bytecode":{"linkReferences":{},"object":"60a060405234801561001057600080fd5b50604051610a32380380610a3283398101604081905261002f91610044565b60601b6001600160601b031916608052610072565b600060208284031215610055578081fd5b81516001600160a01b038116811461006b578182fd5b9392505050565b60805160601c61098a6100a86000398061011f52806101b6528061026652806102c4528061035b528061040e525061098a6000f3fe608060405234801561001057600080fd5b50600436106100625760003560e01c8063089fe6aa1461006757806373bd43ad14610085578063ad5c4648146100a5578063c31c9c07146100ba578063c4b69a18146100c2578063d59fb3c3146100d5575b600080fd5b61006f6100dd565b60405161007c919061093b565b60405180910390f35b610098610093366004610861565b6100e3565b60405161007c919061094b565b6100ad61024c565b60405161007c9190610912565b6100ad610264565b6100986100d0366004610891565b610288565b6100ad61045c565b610bb881565b600061010573c1664f994fd3991f98ae944bc16b9aed673ef5fd333085610474565b61014473c1664f994fd3991f98ae944bc16b9aed673ef5fd7f0000000000000000000000000000000000000000000000000000000000000000846105cc565b604080516101008101825273c1664f994fd3991f98ae944bc16b9aed673ef5fd815273b6c322fa3d8e0a60afeb17512905eb2229ce7da56020820152610bb88183015233606082015242608082015260a08101849052600060c0820181905260e0820152905163414bf38960e01b81527f00000000000000000000000000000000000000000000000000000000000000006001600160a01b03169063414bf389906101f3908490600401610926565b602060405180830381600087803b15801561020d57600080fd5b505af1158015610221573d6000803e3d6000fd5b505050506040513d601f19601f820116820180604052508101906102459190610879565b9392505050565b73b6c322fa3d8e0a60afeb17512905eb2229ce7da581565b7f000000000000000000000000000000000000000000000000000000000000000081565b60006102aa73c1664f994fd3991f98ae944bc16b9aed673ef5fd333085610474565b6102e973c1664f994fd3991f98ae944bc16b9aed673ef5fd7f0000000000000000000000000000000000000000000000000000000000000000846105cc565b604080516101008101825273c1664f994fd3991f98ae944bc16b9aed673ef5fd815273b6c322fa3d8e0a60afeb17512905eb2229ce7da56020820152610bb88183015233606082015242608082015260a0810185905260c08101849052600060e08201529051631b67c43360e31b81527f00000000000000000000000000000000000000000000000000000000000000006001600160a01b03169063db3e219890610398908490600401610926565b602060405180830381600087803b1580156103b257600080fd5b505af11580156103c6573d6000803e3d6000fd5b505050506040513d601f19601f820116820180604052508101906103ea9190610879565b9150828210156104555761043473c1664f994fd3991f98ae944bc16b9aed673ef5fd7f000000000000000000000000000000000000000000000000000000000000000060006105cc565b61045573c1664f994fd3991f98ae944bc16b9aed673ef5fd3384860361071a565b5092915050565b73c1664f994fd3991f98ae944bc16b9aed673ef5fd81565b604080516001600160a01b0385811660248301528481166044830152606480830185905283518084039091018152608490920183526020820180516001600160e01b03166323b872dd60e01b178152925182516000948594938a169392918291908083835b602083106104f85780518252601f1990920191602091820191016104d9565b6001836020036101000a0380198251168184511680821785525050505050509050019150506000604051808303816000865af19150503d806000811461055a576040519150601f19603f3d011682016040523d82523d6000602084013e61055f565b606091505b509150915081801561058d57508051158061058d575080806020019051602081101561058a57600080fd5b50515b6105c4576040805162461bcd60e51b815260206004820152600360248201526229aa2360e91b604482015290519081900360640190fd5b505050505050565b604080516001600160a01b038481166024830152604480830185905283518084039091018152606490920183526020820180516001600160e01b031663095ea7b360e01b1781529251825160009485949389169392918291908083835b602083106106485780518252601f199092019160209182019101610629565b6001836020036101000a0380198251168184511680821785525050505050509050019150506000604051808303816000865af19150503d80600081146106aa576040519150601f19603f3d011682016040523d82523d6000602084013e6106af565b606091505b50915091508180156106dd5750805115806106dd57508080602001905160208110156106da57600080fd5b50515b610713576040805162461bcd60e51b8152602060048201526002602482015261534160f01b604482015290519081900360640190fd5b5050505050565b604080516001600160a01b038481166024830152604480830185905283518084039091018152606490920183526020820180516001600160e01b031663a9059cbb60e01b1781529251825160009485949389169392918291908083835b602083106107965780518252601f199092019160209182019101610777565b6001836020036101000a0380198251168184511680821785525050505050509050019150506000604051808303816000865af19150503d80600081146107f8576040519150601f19603f3d011682016040523d82523d6000602084013e6107fd565b606091505b509150915081801561082b57508051158061082b575080806020019051602081101561082857600080fd5b50515b610713576040805162461bcd60e51b815260206004820152600260248201526114d560f21b604482015290519081900360640190fd5b600060208284031215610872578081fd5b5035919050565b60006020828403121561088a578081fd5b5051919050565b600080604083850312156108a3578081fd5b50508035926020909101359150565b80516001600160a01b03908116835260208083015182169084015260408083015162ffffff16908401526060808301518216908401526080808301519084015260a0828101519084015260c0808301519084015260e09182015116910152565b6001600160a01b0391909116815260200190565b610100810161093582846108b2565b92915050565b62ffffff91909116815260200190565b9081526020019056fea2646970667358221220aee4c165fcafbc192da32a3557830e8b309dfed54d625391445d3da839df28c764736f6c63430007060033","opcodes":"PUSH1 0xA0 PUSH1 0x40 MSTORE CALLVALUE DUP1 ISZERO PUSH2 0x10 JUMPI PUSH1 0x0 DUP1 REVERT JUMPDEST POP PUSH1 0x40 MLOAD PUSH2 0xA32 CODESIZE SUB DUP1 PUSH2 0xA32 DUP4 CODECOPY DUP2 ADD PUSH1 0x40 DUP2 SWAP1 MSTORE PUSH2 0x2F SWAP2 PUSH2 0x44 JUMP JUMPDEST PUSH1 0x60 SHL PUSH1 0x1 PUSH1 0x1 PUSH1 0x60 SHL SUB NOT AND PUSH1 0x80 MSTORE PUSH2 0x72 JUMP JUMPDEST PUSH1 0x0 PUSH1 0x20 DUP3 DUP5 SUB SLT ISZERO PUSH2 0x55 JUMPI DUP1 DUP2 REVERT JUMPDEST DUP2 MLOAD PUSH1 0x1 PUSH1 0x1 PUSH1 0xA0 SHL SUB DUP2 AND DUP2 EQ PUSH2 0x6B JUMPI DUP2 DUP3 REVERT JUMPDEST SWAP4 SWAP3 POP POP POP JUMP JUMPDEST PUSH1 0x80 MLOAD PUSH1 0x60 SHR PUSH2 0x98A PUSH2 0xA8 PUSH1 0x0 CODECOPY DUP1 PUSH2 0x11F MSTORE DUP1 PUSH2 0x1B6 MSTORE DUP1 PUSH2 0x266 MSTORE DUP1 PUSH2 0x2C4 MSTORE DUP1 PUSH2 0x35B MSTORE DUP1 PUSH2 0x40E MSTORE POP PUSH2 0x98A PUSH1 0x0 RETURN INVALID PUSH1 0x80 PUSH1 0x40 MSTORE CALLVALUE DUP1 ISZERO PUSH2 0x10 JUMPI PUSH1 0x0 DUP1 REVERT JUMPDEST POP PUSH1 0x4 CALLDATASIZE LT PUSH2 0x62 JUMPI PUSH1 0x0 CALLDATALOAD PUSH1 0xE0 SHR DUP1 PUSH4 0x89FE6AA EQ PUSH2 0x67 JUMPI DUP1 PUSH4 0x73BD43AD EQ PUSH2 0x85 JUMPI DUP1 PUSH4 0xAD5C4648 EQ PUSH2 0xA5 JUMPI DUP1 PUSH4 0xC31C9C07 EQ PUSH2 0xBA JUMPI DUP1 PUSH4 0xC4B69A18 EQ PUSH2 0xC2 JUMPI DUP1 PUSH4 0xD59FB3C3 EQ PUSH2 0xD5 JUMPI JUMPDEST PUSH1 0x0 DUP1 REVERT JUMPDEST PUSH2 0x6F PUSH2 0xDD JUMP JUMPDEST PUSH1 0x40 MLOAD PUSH2 0x7C SWAP2 SWAP1 PUSH2 0x93B JUMP JUMPDEST PUSH1 0x40 MLOAD DUP1 SWAP2 SUB SWAP1 RETURN JUMPDEST PUSH2 0x98 PUSH2 0x93 CALLDATASIZE PUSH1 0x4 PUSH2 0x861 JUMP JUMPDEST PUSH2 0xE3 JUMP JUMPDEST PUSH1 0x40 MLOAD PUSH2 0x7C SWAP2 SWAP1 PUSH2 0x94B JUMP JUMPDEST PUSH2 0xAD PUSH2 0x24C JUMP JUMPDEST PUSH1 0x40 MLOAD PUSH2 0x7C SWAP2 SWAP1 PUSH2 0x912 JUMP JUMPDEST PUSH2 0xAD PUSH2 0x264 JUMP JUMPDEST PUSH2 0x98 PUSH2 0xD0 CALLDATASIZE PUSH1 0x4 PUSH2 0x891 JUMP JUMPDEST PUSH2 0x288 JUMP JUMPDEST PUSH2 0xAD PUSH2 0x45C JUMP JUMPDEST PUSH2 0xBB8 DUP2 JUMP JUMPDEST PUSH1 0x0 PUSH2 0x105 PUSH20 0xC1664F994FD3991F98AE944BC16B9AED673EF5FD CALLER ADDRESS DUP6 PUSH2 0x474 JUMP JUMPDEST PUSH2 0x144 PUSH20 0xC1664F994FD3991F98AE944BC16B9AED673EF5FD PUSH32 0x0 DUP5 PUSH2 0x5CC JUMP JUMPDEST PUSH1 0x40 DUP1 MLOAD PUSH2 0x100 DUP2 ADD DUP3 MSTORE PUSH20 0xC1664F994FD3991F98AE944BC16B9AED673EF5FD DUP2 MSTORE PUSH20 0xB6C322FA3D8E0A60AFEB17512905EB2229CE7DA5 PUSH1 0x20 DUP3 ADD MSTORE PUSH2 0xBB8 DUP2 DUP4 ADD MSTORE CALLER PUSH1 0x60 DUP3 ADD MSTORE TIMESTAMP PUSH1 0x80 DUP3 ADD MSTORE PUSH1 0xA0 DUP2 ADD DUP5 SWAP1 MSTORE PUSH1 0x0 PUSH1 0xC0 DUP3 ADD DUP2 SWAP1 MSTORE PUSH1 0xE0 DUP3 ADD MSTORE SWAP1 MLOAD PUSH4 0x414BF389 PUSH1 0xE0 SHL DUP2 MSTORE PUSH32 0x0 PUSH1 0x1 PUSH1 0x1 PUSH1 0xA0 SHL SUB AND SWAP1 PUSH4 0x414BF389 SWAP1 PUSH2 0x1F3 SWAP1 DUP5 SWAP1 PUSH1 0x4 ADD PUSH2 0x926 JUMP JUMPDEST PUSH1 0x20 PUSH1 0x40 MLOAD DUP1 DUP4 SUB DUP2 PUSH1 0x0 DUP8 DUP1 EXTCODESIZE ISZERO DUP1 ISZERO PUSH2 0x20D JUMPI PUSH1 0x0 DUP1 REVERT JUMPDEST POP GAS CALL ISZERO DUP1 ISZERO PUSH2 0x221 JUMPI RETURNDATASIZE PUSH1 0x0 DUP1 RETURNDATACOPY RETURNDATASIZE PUSH1 0x0 REVERT JUMPDEST POP POP POP POP PUSH1 0x40 MLOAD RETURNDATASIZE PUSH1 0x1F NOT PUSH1 0x1F DUP3 ADD AND DUP3 ADD DUP1 PUSH1 0x40 MSTORE POP DUP2 ADD SWAP1 PUSH2 0x245 SWAP2 SWAP1 PUSH2 0x879 JUMP JUMPDEST SWAP4 SWAP3 POP POP POP JUMP JUMPDEST PUSH20 0xB6C322FA3D8E0A60AFEB17512905EB2229CE7DA5 DUP2 JUMP JUMPDEST PUSH32 0x0 DUP2 JUMP JUMPDEST PUSH1 0x0 PUSH2 0x2AA PUSH20 0xC1664F994FD3991F98AE944BC16B9AED673EF5FD CALLER ADDRESS DUP6 PUSH2 0x474 JUMP JUMPDEST PUSH2 0x2E9 PUSH20 0xC1664F994FD3991F98AE944BC16B9AED673EF5FD PUSH32 0x0 DUP5 PUSH2 0x5CC JUMP JUMPDEST PUSH1 0x40 DUP1 MLOAD PUSH2 0x100 DUP2 ADD DUP3 MSTORE PUSH20 0xC1664F994FD3991F98AE944BC16B9AED673EF5FD DUP2 MSTORE PUSH20 0xB6C322FA3D8E0A60AFEB17512905EB2229CE7DA5 PUSH1 0x20 DUP3 ADD MSTORE PUSH2 0xBB8 DUP2 DUP4 ADD MSTORE CALLER PUSH1 0x60 DUP3 ADD MSTORE TIMESTAMP PUSH1 0x80 DUP3 ADD MSTORE PUSH1 0xA0 DUP2 ADD DUP6 SWAP1 MSTORE PUSH1 0xC0 DUP2 ADD DUP5 SWAP1 MSTORE PUSH1 0x0 PUSH1 0xE0 DUP3 ADD MSTORE SWAP1 MLOAD PUSH4 0x1B67C433 PUSH1 0xE3 SHL DUP2 MSTORE PUSH32 0x0 PUSH1 0x1 PUSH1 0x1 PUSH1 0xA0 SHL SUB AND SWAP1 PUSH4 0xDB3E2198 SWAP1 PUSH2 0x398 SWAP1 DUP5 SWAP1 PUSH1 0x4 ADD PUSH2 0x926 JUMP JUMPDEST PUSH1 0x20 PUSH1 0x40 MLOAD DUP1 DUP4 SUB DUP2 PUSH1 0x0 DUP8 DUP1 EXTCODESIZE ISZERO DUP1 ISZERO PUSH2 0x3B2 JUMPI PUSH1 0x0 DUP1 REVERT JUMPDEST POP GAS CALL ISZERO DUP1 ISZERO PUSH2 0x3C6 JUMPI RETURNDATASIZE PUSH1 0x0 DUP1 RETURNDATACOPY RETURNDATASIZE PUSH1 0x0 REVERT JUMPDEST POP POP POP POP PUSH1 0x40 MLOAD RETURNDATASIZE PUSH1 0x1F NOT PUSH1 0x1F DUP3 ADD AND DUP3 ADD DUP1 PUSH1 0x40 MSTORE POP DUP2 ADD SWAP1 PUSH2 0x3EA SWAP2 SWAP1 PUSH2 0x879 JUMP JUMPDEST SWAP2 POP DUP3 DUP3 LT ISZERO PUSH2 0x455 JUMPI PUSH2 0x434 PUSH20 0xC1664F994FD3991F98AE944BC16B9AED673EF5FD PUSH32 0x0 PUSH1 0x0 PUSH2 0x5CC JUMP JUMPDEST PUSH2 0x455 PUSH20 0xC1664F994FD3991F98AE944BC16B9AED673EF5FD CALLER DUP5 DUP7 SUB PUSH2 0x71A JUMP JUMPDEST POP SWAP3 SWAP2 POP POP JUMP JUMPDEST PUSH20 0xC1664F994FD3991F98AE944BC16B9AED673EF5FD DUP2 JUMP JUMPDEST PUSH1 0x40 DUP1 MLOAD PUSH1 0x1 PUSH1 0x1 PUSH1 0xA0 SHL SUB DUP6 DUP2 AND PUSH1 0x24 DUP4 ADD MSTORE DUP5 DUP2 AND PUSH1 0x44 DUP4 ADD MSTORE PUSH1 0x64 DUP1 DUP4 ADD DUP6 SWAP1 MSTORE DUP4 MLOAD DUP1 DUP5 SUB SWAP1 SWAP2 ADD DUP2 MSTORE PUSH1 0x84 SWAP1 SWAP3 ADD DUP4 MSTORE PUSH1 0x20 DUP3 ADD DUP1 MLOAD PUSH1 0x1 PUSH1 0x1 PUSH1 0xE0 SHL SUB AND PUSH4 0x23B872DD PUSH1 0xE0 SHL OR DUP2 MSTORE SWAP3 MLOAD DUP3 MLOAD PUSH1 0x0 SWAP5 DUP6 SWAP5 SWAP4 DUP11 AND SWAP4 SWAP3 SWAP2 DUP3 SWAP2 SWAP1 DUP1 DUP4 DUP4 JUMPDEST PUSH1 0x20 DUP4 LT PUSH2 0x4F8 JUMPI DUP1 MLOAD DUP3 MSTORE PUSH1 0x1F NOT SWAP1 SWAP3 ADD SWAP2 PUSH1 0x20 SWAP2 DUP3 ADD SWAP2 ADD PUSH2 0x4D9 JUMP JUMPDEST PUSH1 0x1 DUP4 PUSH1 0x20 SUB PUSH2 0x100 EXP SUB DUP1 NOT DUP3 MLOAD AND DUP2 DUP5 MLOAD AND DUP1 DUP3 OR DUP6 MSTORE POP POP POP POP POP POP SWAP1 POP ADD SWAP2 POP POP PUSH1 0x0 PUSH1 0x40 MLOAD DUP1 DUP4 SUB DUP2 PUSH1 0x0 DUP7 GAS CALL SWAP2 POP POP RETURNDATASIZE DUP1 PUSH1 0x0 DUP2 EQ PUSH2 0x55A JUMPI PUSH1 0x40 MLOAD SWAP2 POP PUSH1 0x1F NOT PUSH1 0x3F RETURNDATASIZE ADD AND DUP3 ADD PUSH1 0x40 MSTORE RETURNDATASIZE DUP3 MSTORE RETURNDATASIZE PUSH1 0x0 PUSH1 0x20 DUP5 ADD RETURNDATACOPY PUSH2 0x55F JUMP JUMPDEST PUSH1 0x60 SWAP2 POP JUMPDEST POP SWAP2 POP SWAP2 POP DUP2 DUP1 ISZERO PUSH2 0x58D JUMPI POP DUP1 MLOAD ISZERO DUP1 PUSH2 0x58D JUMPI POP DUP1 DUP1 PUSH1 0x20 ADD SWAP1 MLOAD PUSH1 0x20 DUP2 LT ISZERO PUSH2 0x58A JUMPI PUSH1 0x0 DUP1 REVERT JUMPDEST POP MLOAD JUMPDEST PUSH2 0x5C4 JUMPI PUSH1 0x40 DUP1 MLOAD PUSH3 0x461BCD PUSH1 0xE5 SHL DUP2 MSTORE PUSH1 0x20 PUSH1 0x4 DUP3 ADD MSTORE PUSH1 0x3 PUSH1 0x24 DUP3 ADD MSTORE PUSH3 0x29AA23 PUSH1 0xE9 SHL PUSH1 0x44 DUP3 ADD MSTORE SWAP1 MLOAD SWAP1 DUP2 SWAP1 SUB PUSH1 0x64 ADD SWAP1 REVERT JUMPDEST POP POP POP POP POP POP JUMP JUMPDEST PUSH1 0x40 DUP1 MLOAD PUSH1 0x1 PUSH1 0x1 PUSH1 0xA0 SHL SUB DUP5 DUP2 AND PUSH1 0x24 DUP4 ADD MSTORE PUSH1 0x44 DUP1 DUP4 ADD DUP6 SWAP1 MSTORE DUP4 MLOAD DUP1 DUP5 SUB SWAP1 SWAP2 ADD DUP2 MSTORE PUSH1 0x64 SWAP1 SWAP3 ADD DUP4 MSTORE PUSH1 0x20 DUP3 ADD DUP1 MLOAD PUSH1 0x1 PUSH1 0x1 PUSH1 0xE0 SHL SUB AND PUSH4 0x95EA7B3 PUSH1 0xE0 SHL OR DUP2 MSTORE SWAP3 MLOAD DUP3 MLOAD PUSH1 0x0 SWAP5 DUP6 SWAP5 SWAP4 DUP10 AND SWAP4 SWAP3 SWAP2 DUP3 SWAP2 SWAP1 DUP1 DUP4 DUP4 JUMPDEST PUSH1 0x20 DUP4 LT PUSH2 0x648 JUMPI DUP1 MLOAD DUP3 MSTORE PUSH1 0x1F NOT SWAP1 SWAP3 ADD SWAP2 PUSH1 0x20 SWAP2 DUP3 ADD SWAP2 ADD PUSH2 0x629 JUMP JUMPDEST PUSH1 0x1 DUP4 PUSH1 0x20 SUB PUSH2 0x100 EXP SUB DUP1 NOT DUP3 MLOAD AND DUP2 DUP5 MLOAD AND DUP1 DUP3 OR DUP6 MSTORE POP POP POP POP POP POP SWAP1 POP ADD SWAP2 POP POP PUSH1 0x0 PUSH1 0x40 MLOAD DUP1 DUP4 SUB DUP2 PUSH1 0x0 DUP7 GAS CALL SWAP2 POP POP RETURNDATASIZE DUP1 PUSH1 0x0 DUP2 EQ PUSH2 0x6AA JUMPI PUSH1 0x40 MLOAD SWAP2 POP PUSH1 0x1F NOT PUSH1 0x3F RETURNDATASIZE ADD AND DUP3 ADD PUSH1 0x40 MSTORE RETURNDATASIZE DUP3 MSTORE RETURNDATASIZE PUSH1 0x0 PUSH1 0x20 DUP5 ADD RETURNDATACOPY PUSH2 0x6AF JUMP JUMPDEST PUSH1 0x60 SWAP2 POP JUMPDEST POP SWAP2 POP SWAP2 POP DUP2 DUP1 ISZERO PUSH2 0x6DD JUMPI POP DUP1 MLOAD ISZERO DUP1 PUSH2 0x6DD JUMPI POP DUP1 DUP1 PUSH1 0x20 ADD SWAP1 MLOAD PUSH1 0x20 DUP2 LT ISZERO PUSH2 0x6DA JUMPI PUSH1 0x0 DUP1 REVERT JUMPDEST POP MLOAD JUMPDEST PUSH2 0x713 JUMPI PUSH1 0x40 DUP1 MLOAD PUSH3 0x461BCD PUSH1 0xE5 SHL DUP2 MSTORE PUSH1 0x20 PUSH1 0x4 DUP3 ADD MSTORE PUSH1 0x2 PUSH1 0x24 DUP3 ADD MSTORE PUSH2 0x5341 PUSH1 0xF0 SHL PUSH1 0x44 DUP3 ADD MSTORE SWAP1 MLOAD SWAP1 DUP2 SWAP1 SUB PUSH1 0x64 ADD SWAP1 REVERT JUMPDEST POP POP POP POP POP JUMP JUMPDEST PUSH1 0x40 DUP1 MLOAD PUSH1 0x1 PUSH1 0x1 PUSH1 0xA0 SHL SUB DUP5 DUP2 AND PUSH1 0x24 DUP4 ADD MSTORE PUSH1 0x44 DUP1 DUP4 ADD DUP6 SWAP1 MSTORE DUP4 MLOAD DUP1 DUP5 SUB SWAP1 SWAP2 ADD DUP2 MSTORE PUSH1 0x64 SWAP1 SWAP3 ADD DUP4 MSTORE PUSH1 0x20 DUP3 ADD DUP1 MLOAD PUSH1 0x1 PUSH1 0x1 PUSH1 0xE0 SHL SUB AND PUSH4 0xA9059CBB PUSH1 0xE0 SHL OR DUP2 MSTORE SWAP3 MLOAD DUP3 MLOAD PUSH1 0x0 SWAP5 DUP6 SWAP5 SWAP4 DUP10 AND SWAP4 SWAP3 SWAP2 DUP3 SWAP2 SWAP1 DUP1 DUP4 DUP4 JUMPDEST PUSH1 0x20 DUP4 LT PUSH2 0x796 JUMPI DUP1 MLOAD DUP3 MSTORE PUSH1 0x1F NOT SWAP1 SWAP3 ADD SWAP2 PUSH1 0x20 SWAP2 DUP3 ADD SWAP2 ADD PUSH2 0x777 JUMP JUMPDEST PUSH1 0x1 DUP4 PUSH1 0x20 SUB PUSH2 0x100 EXP SUB DUP1 NOT DUP3 MLOAD AND DUP2 DUP5 MLOAD AND DUP1 DUP3 OR DUP6 MSTORE POP POP POP POP POP POP SWAP1 POP ADD SWAP2 POP POP PUSH1 0x0 PUSH1 0x40 MLOAD DUP1 DUP4 SUB DUP2 PUSH1 0x0 DUP7 GAS CALL SWAP2 POP POP RETURNDATASIZE DUP1 PUSH1 0x0 DUP2 EQ PUSH2 0x7F8 JUMPI PUSH1 0x40 MLOAD SWAP2 POP PUSH1 0x1F NOT PUSH1 0x3F RETURNDATASIZE ADD AND DUP3 ADD PUSH1 0x40 MSTORE RETURNDATASIZE DUP3 MSTORE RETURNDATASIZE PUSH1 0x0 PUSH1 0x20 DUP5 ADD RETURNDATACOPY PUSH2 0x7FD JUMP JUMPDEST PUSH1 0x60 SWAP2 POP JUMPDEST POP SWAP2 POP SWAP2 POP DUP2 DUP1 ISZERO PUSH2 0x82B JUMPI POP DUP1 MLOAD ISZERO DUP1 PUSH2 0x82B JUMPI POP DUP1 DUP1 PUSH1 0x20 ADD SWAP1 MLOAD PUSH1 0x20 DUP2 LT ISZERO PUSH2 0x828 JUMPI PUSH1 0x0 DUP1 REVERT JUMPDEST POP MLOAD JUMPDEST PUSH2 0x713 JUMPI PUSH1 0x40 DUP1 MLOAD PUSH3 0x461BCD PUSH1 0xE5 SHL DUP2 MSTORE PUSH1 0x20 PUSH1 0x4 DUP3 ADD MSTORE PUSH1 0x2 PUSH1 0x24 DUP3 ADD MSTORE PUSH2 0x14D5 PUSH1 0xF2 SHL PUSH1 0x44 DUP3 ADD MSTORE SWAP1 MLOAD SWAP1 DUP2 SWAP1 SUB PUSH1 0x64 ADD SWAP1 REVERT JUMPDEST PUSH1 0x0 PUSH1 0x20 DUP3 DUP5 SUB SLT ISZERO PUSH2 0x872 JUMPI DUP1 DUP2 REVERT JUMPDEST POP CALLDATALOAD SWAP2 SWAP1 POP JUMP JUMPDEST PUSH1 0x0 PUSH1 0x20 DUP3 DUP5 SUB SLT ISZERO PUSH2 0x88A JUMPI DUP1 DUP2 REVERT JUMPDEST POP MLOAD SWAP2 SWAP1 POP JUMP JUMPDEST PUSH1 0x0 DUP1 PUSH1 0x40 DUP4 DUP6 SUB SLT ISZERO PUSH2 0x8A3 JUMPI DUP1 DUP2 REVERT JUMPDEST POP POP DUP1 CALLDATALOAD SWAP3 PUSH1 0x20 SWAP1 SWAP2 ADD CALLDATALOAD SWAP2 POP JUMP JUMPDEST DUP1 MLOAD PUSH1 0x1 PUSH1 0x1 PUSH1 0xA0 SHL SUB SWAP1 DUP2 AND DUP4 MSTORE PUSH1 0x20 DUP1 DUP4 ADD MLOAD DUP3 AND SWAP1 DUP5 ADD MSTORE PUSH1 0x40 DUP1 DUP4 ADD MLOAD PUSH3 0xFFFFFF AND SWAP1 DUP5 ADD MSTORE PUSH1 0x60 DUP1 DUP4 ADD MLOAD DUP3 AND SWAP1 DUP5 ADD MSTORE PUSH1 0x80 DUP1 DUP4 ADD MLOAD SWAP1 DUP5 ADD MSTORE PUSH1 0xA0 DUP3 DUP2 ADD MLOAD SWAP1 DUP5 ADD MSTORE PUSH1 0xC0 DUP1 DUP4 ADD MLOAD SWAP1 DUP5 ADD MSTORE PUSH1 0xE0 SWAP2 DUP3 ADD MLOAD AND SWAP2 ADD MSTORE JUMP JUMPDEST PUSH1 0x1 PUSH1 0x1 PUSH1 0xA0 SHL SUB SWAP2 SWAP1 SWAP2 AND DUP2 MSTORE PUSH1 0x20 ADD SWAP1 JUMP JUMPDEST PUSH2 0x100 DUP2 ADD PUSH2 0x935 DUP3 DUP5 PUSH2 0x8B2 JUMP JUMPDEST SWAP3 SWAP2 POP POP JUMP JUMPDEST PUSH3 0xFFFFFF SWAP2 SWAP1 SWAP2 AND DUP2 MSTORE PUSH1 0x20 ADD SWAP1 JUMP JUMPDEST SWAP1 DUP2 MSTORE PUSH1 0x20 ADD SWAP1 JUMP INVALID LOG2 PUSH5 0x6970667358 0x22 SLT KECCAK256 0xAE 0xE4 0xC1 PUSH6 0xFCAFBC192DA3 0x2A CALLDATALOAD JUMPI DUP4 0xE DUP12 ADDRESS SWAP14 INVALID 0xD5 0x4D PUSH3 0x539144 0x5D RETURNDATASIZE 0xA8 CODECOPY 0xDF 0x28 0xC7 PUSH5 0x736F6C6343 STOP SMOD MOD STOP CALLER "},"methodIdentifiers":{"MOR()":"d59fb3c3","WETH()":"ad5c4648","poolFee()":"089fe6aa","swapExactInputSingle(uint256)":"73bd43ad","swapExactOutputSingle(uint256,uint256)":"c4b69a18","swapRouter()":"c31c9c07"}}}}}