{"contracts/TokenSwap.sol":{"TokenSwap":{"abi":[{"inputs":[{"internalType":"contract ISwapRouter","name":"_swapRouter","type":"address"},{"internalType":"contract IUniswapV3Factory","name":"_factory","type":"address"}],"stateMutability":"nonpayable","type":"constructor"},{"inputs":[],"name":"MOR","outputs":[{"internalType":"address","name":"","type":"address"}],"stateMutability":"view","type":"function"},{"inputs":[],"name":"WETH","outputs":[{"internalType":"address","name":"","type":"address"}],"stateMutability":"view","type":"function"},{"inputs":[],"name":"checkPool","outputs":[{"internalType":"address","name":"","type":"address"}],"stateMutability":"view","type":"function"},{"inputs":[],"name":"createPool","outputs":[],"stateMutability":"nonpayable","type":"function"},{"inputs":[],"name":"factory","outputs":[{"internalType":"contract IUniswapV3Factory","name":"","type":"address"}],"stateMutability":"view","type":"function"},{"inputs":[],"name":"getFactoryAddress","outputs":[{"internalType":"address","name":"","type":"address"}],"stateMutability":"view","type":"function"},{"inputs":[],"name":"getPoolDirect","outputs":[{"internalType":"address","name":"","type":"address"}],"stateMutability":"view","type":"function"},{"inputs":[],"name":"poolFee","outputs":[{"internalType":"uint24","name":"","type":"uint24"}],"stateMutability":"view","type":"function"},{"inputs":[{"internalType":"uint256","name":"amountIn","type":"uint256"},{"internalType":"address","name":"tokenIn","type":"address"},{"internalType":"address","name":"tokenOut","type":"address"},{"internalType":"uint24","name":"_poolFee","type":"uint24"}],"name":"swapExactInputSingle","outputs":[{"internalType":"uint256","name":"amountOut","type":"uint256"}],"stateMutability":"nonpayable","type":"function"},{"inputs":[{"internalType":"uint256","name":"amountOut","type":"uint256"},{"internalType":"uint256","name":"amountInMaximum","type":"uint256"},{"internalType":"address","name":"tokenIn","type":"address"},{"internalType":"address","name":"tokenOut","type":"address"}],"name":"swapExactOutputSingle","outputs":[{"internalType":"uint256","name":"amountIn","type":"uint256"}],"stateMutability":"nonpayable","type":"function"},{"inputs":[],"name":"swapRouter","outputs":[{"internalType":"contract ISwapRouter","name":"","type":"address"}],"stateMutability":"view","type":"function"}],"evm":{"bytecode":{"linkReferences":{},"object":"60c060405234801561001057600080fd5b50604051610ec9380380610ec983398101604081905261002f9161004d565b6001600160601b0319606092831b8116608052911b1660a05261009e565b6000806040838503121561005f578182fd5b825161006a81610086565b602084015190925061007b81610086565b809150509250929050565b6001600160a01b038116811461009b57600080fd5b50565b60805160601c60a05160601c610dda6100ef600039806101665280610235528061045352806106f1525080610301528061037e528061041552806105a2528061062252806106cd5250610dda6000f3fe608060405234801561001057600080fd5b50600436106100a95760003560e01c8063ad5c464811610071578063ad5c464814610113578063bd13338c1461011b578063c31c9c071461012e578063c45a015514610136578063d59fb3c31461013e578063dd8390e3146100cc576100a9565b8063089fe6aa146100ae5780634771218a146100cc5780639a06b113146100e15780639d0b14c5146100eb578063a9c2e36c1461010b575b600080fd5b6100b6610146565b6040516100c39190610d76565b60405180910390f35b6100d461014c565b6040516100c39190610c4a565b6100e961021e565b005b6100fe6100f9366004610bac565b6102ed565b6040516100c39190610d86565b6100d4610451565b6100d4610475565b6100fe610129366004610b53565b61048d565b6100d46106cb565b6100d46106ef565b6100d4610713565b610bb881565b604051630b4c774160e11b81526000906001600160a01b037f00000000000000000000000000000000000000000000000000000000000000001690631698ee82906101c99073c1664f994fd3991f98ae944bc16b9aed673ef5fd9073b6c322fa3d8e0a60afeb17512905eb2229ce7da590610bb890600401610c5e565b60206040518083038186803b1580156101e157600080fd5b505afa1580156101f5573d6000803e3d6000fd5b505050506040513d601f19601f820116820180604052508101906102199190610b18565b905090565b60405163a167129560e01b81526001600160a01b037f0000000000000000000000000000000000000000000000000000000000000000169063a1671295906102989073c1664f994fd3991f98ae944bc16b9aed673ef5fd9073b6c322fa3d8e0a60afeb17512905eb2229ce7da590610bb890600401610c5e565b602060405180830381600087803b1580156102b257600080fd5b505af11580156102c6573d6000803e3d6000fd5b505050506040513d601f19601f820116820180604052508101906102ea9190610b18565b50565b60006102fb8333308761072b565b610326837f000000000000000000000000000000000000000000000000000000000000000086610883565b60408051610100810182526001600160a01b0380861682528481166020830152610bb88284015233606083015242608083015260a0820188905260c08201879052600060e08301529151631b67c43360e31b815290917f0000000000000000000000000000000000000000000000000000000000000000169063db3e2198906103b3908490600401610d61565b602060405180830381600087803b1580156103cd57600080fd5b505af11580156103e1573d6000803e3d6000fd5b505050506040513d601f19601f820116820180604052508101906104059190610b3b565b9150848210156104485761043b847f00000000000000000000000000000000000000000000000000000000000000006000610883565b61044884338488036109d1565b50949350505050565b7f000000000000000000000000000000000000000000000000000000000000000090565b73b6c322fa3d8e0a60afeb17512905eb2229ce7da581565b60006001600160a01b03841673c1664f994fd3991f98ae944bc16b9aed673ef5fd14806104d657506001600160a01b03841673b6c322fa3d8e0a60afeb17512905eb2229ce7da5145b6104fb5760405162461bcd60e51b81526004016104f290610d34565b60405180910390fd5b6001600160a01b03831673c1664f994fd3991f98ae944bc16b9aed673ef5fd148061054257506001600160a01b03831673b6c322fa3d8e0a60afeb17512905eb2229ce7da5145b61055e5760405162461bcd60e51b81526004016104f290610d06565b826001600160a01b0316846001600160a01b031614156105905760405162461bcd60e51b81526004016104f290610cbd565b61059c8433308861072b565b6105c7847f000000000000000000000000000000000000000000000000000000000000000087610883565b60408051610100810182526001600160a01b038087168252858116602083015262ffffff85168284015233606083015242608083015260a08201889052600060c0830181905260e0830152915163414bf38960e01b815290917f0000000000000000000000000000000000000000000000000000000000000000169063414bf38990610657908490600401610d61565b602060405180830381600087803b15801561067157600080fd5b505af1158015610685573d6000803e3d6000fd5b505050506040513d601f19601f820116820180604052508101906106a99190610b3b565b9150600082116104485760405162461bcd60e51b81526004016104f290610c86565b7f000000000000000000000000000000000000000000000000000000000000000081565b7f000000000000000000000000000000000000000000000000000000000000000081565b73c1664f994fd3991f98ae944bc16b9aed673ef5fd81565b604080516001600160a01b0385811660248301528481166044830152606480830185905283518084039091018152608490920183526020820180516001600160e01b03166323b872dd60e01b178152925182516000948594938a169392918291908083835b602083106107af5780518252601f199092019160209182019101610790565b6001836020036101000a0380198251168184511680821785525050505050509050019150506000604051808303816000865af19150503d8060008114610811576040519150601f19603f3d011682016040523d82523d6000602084013e610816565b606091505b5091509150818015610844575080511580610844575080806020019051602081101561084157600080fd5b50515b61087b576040805162461bcd60e51b815260206004820152600360248201526229aa2360e91b604482015290519081900360640190fd5b505050505050565b604080516001600160a01b038481166024830152604480830185905283518084039091018152606490920183526020820180516001600160e01b031663095ea7b360e01b1781529251825160009485949389169392918291908083835b602083106108ff5780518252601f1990920191602091820191016108e0565b6001836020036101000a0380198251168184511680821785525050505050509050019150506000604051808303816000865af19150503d8060008114610961576040519150601f19603f3d011682016040523d82523d6000602084013e610966565b606091505b5091509150818015610994575080511580610994575080806020019051602081101561099157600080fd5b50515b6109ca576040805162461bcd60e51b8152602060048201526002602482015261534160f01b604482015290519081900360640190fd5b5050505050565b604080516001600160a01b038481166024830152604480830185905283518084039091018152606490920183526020820180516001600160e01b031663a9059cbb60e01b1781529251825160009485949389169392918291908083835b60208310610a4d5780518252601f199092019160209182019101610a2e565b6001836020036101000a0380198251168184511680821785525050505050509050019150506000604051808303816000865af19150503d8060008114610aaf576040519150601f19603f3d011682016040523d82523d6000602084013e610ab4565b606091505b5091509150818015610ae2575080511580610ae25750808060200190516020811015610adf57600080fd5b50515b6109ca576040805162461bcd60e51b815260206004820152600260248201526114d560f21b604482015290519081900360640190fd5b600060208284031215610b29578081fd5b8151610b3481610d8f565b9392505050565b600060208284031215610b4c578081fd5b5051919050565b60008060008060808587031215610b68578283fd5b843593506020850135610b7a81610d8f565b92506040850135610b8a81610d8f565b9150606085013562ffffff81168114610ba1578182fd5b939692955090935050565b60008060008060808587031215610bc1578384fd5b84359350602085013592506040850135610bda81610d8f565b91506060850135610ba181610d8f565b80516001600160a01b03908116835260208083015182169084015260408083015162ffffff16908401526060808301518216908401526080808301519084015260a0828101519084015260c0808301519084015260e09182015116910152565b6001600160a01b0391909116815260200190565b6001600160a01b03938416815291909216602082015262ffffff909116604082015260600190565b6020808252601f908201527f53776170206661696c65643a206e6f20746f6b656e7320726563656976656400604082015260600190565b60208082526029908201527f496e70757420616e64206f757470757420746f6b656e73206d75737420626520604082015268191a5999995c995b9d60ba1b606082015260800190565b60208082526014908201527324b73b30b634b21037baba383aba103a37b5b2b760611b604082015260600190565b60208082526013908201527224b73b30b634b21034b7383aba103a37b5b2b760691b604082015260600190565b6101008101610d708284610bea565b92915050565b62ffffff91909116815260200190565b90815260200190565b6001600160a01b03811681146102ea57600080fdfea2646970667358221220c571e6d00fed8dac578d0ffa0593b6a2028a00c31b65f0c9baf0fe008ab58daf64736f6c63430007060033","opcodes":"PUSH1 0xC0 PUSH1 0x40 MSTORE CALLVALUE DUP1 ISZERO PUSH2 0x10 JUMPI PUSH1 0x0 DUP1 REVERT JUMPDEST POP PUSH1 0x40 MLOAD PUSH2 0xEC9 CODESIZE SUB DUP1 PUSH2 0xEC9 DUP4 CODECOPY DUP2 ADD PUSH1 0x40 DUP2 SWAP1 MSTORE PUSH2 0x2F SWAP2 PUSH2 0x4D JUMP JUMPDEST PUSH1 0x1 PUSH1 0x1 PUSH1 0x60 SHL SUB NOT PUSH1 0x60 SWAP3 DUP4 SHL DUP2 AND PUSH1 0x80 MSTORE SWAP2 SHL AND PUSH1 0xA0 MSTORE PUSH2 0x9E JUMP JUMPDEST PUSH1 0x0 DUP1 PUSH1 0x40 DUP4 DUP6 SUB SLT ISZERO PUSH2 0x5F JUMPI DUP2 DUP3 REVERT JUMPDEST DUP3 MLOAD PUSH2 0x6A DUP2 PUSH2 0x86 JUMP JUMPDEST PUSH1 0x20 DUP5 ADD MLOAD SWAP1 SWAP3 POP PUSH2 0x7B DUP2 PUSH2 0x86 JUMP JUMPDEST DUP1 SWAP2 POP POP SWAP3 POP SWAP3 SWAP1 POP JUMP JUMPDEST PUSH1 0x1 PUSH1 0x1 PUSH1 0xA0 SHL SUB DUP2 AND DUP2 EQ PUSH2 0x9B JUMPI PUSH1 0x0 DUP1 REVERT JUMPDEST POP JUMP JUMPDEST PUSH1 0x80 MLOAD PUSH1 0x60 SHR PUSH1 0xA0 MLOAD PUSH1 0x60 SHR PUSH2 0xDDA PUSH2 0xEF PUSH1 0x0 CODECOPY DUP1 PUSH2 0x166 MSTORE DUP1 PUSH2 0x235 MSTORE DUP1 PUSH2 0x453 MSTORE DUP1 PUSH2 0x6F1 MSTORE POP DUP1 PUSH2 0x301 MSTORE DUP1 PUSH2 0x37E MSTORE DUP1 PUSH2 0x415 MSTORE DUP1 PUSH2 0x5A2 MSTORE DUP1 PUSH2 0x622 MSTORE DUP1 PUSH2 0x6CD MSTORE POP PUSH2 0xDDA PUSH1 0x0 RETURN INVALID PUSH1 0x80 PUSH1 0x40 MSTORE CALLVALUE DUP1 ISZERO PUSH2 0x10 JUMPI PUSH1 0x0 DUP1 REVERT JUMPDEST POP PUSH1 0x4 CALLDATASIZE LT PUSH2 0xA9 JUMPI PUSH1 0x0 CALLDATALOAD PUSH1 0xE0 SHR DUP1 PUSH4 0xAD5C4648 GT PUSH2 0x71 JUMPI DUP1 PUSH4 0xAD5C4648 EQ PUSH2 0x113 JUMPI DUP1 PUSH4 0xBD13338C EQ PUSH2 0x11B JUMPI DUP1 PUSH4 0xC31C9C07 EQ PUSH2 0x12E JUMPI DUP1 PUSH4 0xC45A0155 EQ PUSH2 0x136 JUMPI DUP1 PUSH4 0xD59FB3C3 EQ PUSH2 0x13E JUMPI DUP1 PUSH4 0xDD8390E3 EQ PUSH2 0xCC JUMPI PUSH2 0xA9 JUMP JUMPDEST DUP1 PUSH4 0x89FE6AA EQ PUSH2 0xAE JUMPI DUP1 PUSH4 0x4771218A EQ PUSH2 0xCC JUMPI DUP1 PUSH4 0x9A06B113 EQ PUSH2 0xE1 JUMPI DUP1 PUSH4 0x9D0B14C5 EQ PUSH2 0xEB JUMPI DUP1 PUSH4 0xA9C2E36C EQ PUSH2 0x10B JUMPI JUMPDEST PUSH1 0x0 DUP1 REVERT JUMPDEST PUSH2 0xB6 PUSH2 0x146 JUMP JUMPDEST PUSH1 0x40 MLOAD PUSH2 0xC3 SWAP2 SWAP1 PUSH2 0xD76 JUMP JUMPDEST PUSH1 0x40 MLOAD DUP1 SWAP2 SUB SWAP1 RETURN JUMPDEST PUSH2 0xD4 PUSH2 0x14C JUMP JUMPDEST PUSH1 0x40 MLOAD PUSH2 0xC3 SWAP2 SWAP1 PUSH2 0xC4A JUMP JUMPDEST PUSH2 0xE9 PUSH2 0x21E JUMP JUMPDEST STOP JUMPDEST PUSH2 0xFE PUSH2 0xF9 CALLDATASIZE PUSH1 0x4 PUSH2 0xBAC JUMP JUMPDEST PUSH2 0x2ED JUMP JUMPDEST PUSH1 0x40 MLOAD PUSH2 0xC3 SWAP2 SWAP1 PUSH2 0xD86 JUMP JUMPDEST PUSH2 0xD4 PUSH2 0x451 JUMP JUMPDEST PUSH2 0xD4 PUSH2 0x475 JUMP JUMPDEST PUSH2 0xFE PUSH2 0x129 CALLDATASIZE PUSH1 0x4 PUSH2 0xB53 JUMP JUMPDEST PUSH2 0x48D JUMP JUMPDEST PUSH2 0xD4 PUSH2 0x6CB JUMP JUMPDEST PUSH2 0xD4 PUSH2 0x6EF JUMP JUMPDEST PUSH2 0xD4 PUSH2 0x713 JUMP JUMPDEST PUSH2 0xBB8 DUP2 JUMP JUMPDEST PUSH1 0x40 MLOAD PUSH4 0xB4C7741 PUSH1 0xE1 SHL DUP2 MSTORE PUSH1 0x0 SWAP1 PUSH1 0x1 PUSH1 0x1 PUSH1 0xA0 SHL SUB PUSH32 0x0 AND SWAP1 PUSH4 0x1698EE82 SWAP1 PUSH2 0x1C9 SWAP1 PUSH20 0xC1664F994FD3991F98AE944BC16B9AED673EF5FD SWAP1 PUSH20 0xB6C322FA3D8E0A60AFEB17512905EB2229CE7DA5 SWAP1 PUSH2 0xBB8 SWAP1 PUSH1 0x4 ADD PUSH2 0xC5E JUMP JUMPDEST PUSH1 0x20 PUSH1 0x40 MLOAD DUP1 DUP4 SUB DUP2 DUP7 DUP1 EXTCODESIZE ISZERO DUP1 ISZERO PUSH2 0x1E1 JUMPI PUSH1 0x0 DUP1 REVERT JUMPDEST POP GAS STATICCALL ISZERO DUP1 ISZERO PUSH2 0x1F5 JUMPI RETURNDATASIZE PUSH1 0x0 DUP1 RETURNDATACOPY RETURNDATASIZE PUSH1 0x0 REVERT JUMPDEST POP POP POP POP PUSH1 0x40 MLOAD RETURNDATASIZE PUSH1 0x1F NOT PUSH1 0x1F DUP3 ADD AND DUP3 ADD DUP1 PUSH1 0x40 MSTORE POP DUP2 ADD SWAP1 PUSH2 0x219 SWAP2 SWAP1 PUSH2 0xB18 JUMP JUMPDEST SWAP1 POP SWAP1 JUMP JUMPDEST PUSH1 0x40 MLOAD PUSH4 0xA1671295 PUSH1 0xE0 SHL DUP2 MSTORE PUSH1 0x1 PUSH1 0x1 PUSH1 0xA0 SHL SUB PUSH32 0x0 AND SWAP1 PUSH4 0xA1671295 SWAP1 PUSH2 0x298 SWAP1 PUSH20 0xC1664F994FD3991F98AE944BC16B9AED673EF5FD SWAP1 PUSH20 0xB6C322FA3D8E0A60AFEB17512905EB2229CE7DA5 SWAP1 PUSH2 0xBB8 SWAP1 PUSH1 0x4 ADD PUSH2 0xC5E JUMP JUMPDEST PUSH1 0x20 PUSH1 0x40 MLOAD DUP1 DUP4 SUB DUP2 PUSH1 0x0 DUP8 DUP1 EXTCODESIZE ISZERO DUP1 ISZERO PUSH2 0x2B2 JUMPI PUSH1 0x0 DUP1 REVERT JUMPDEST POP GAS CALL ISZERO DUP1 ISZERO PUSH2 0x2C6 JUMPI RETURNDATASIZE PUSH1 0x0 DUP1 RETURNDATACOPY RETURNDATASIZE PUSH1 0x0 REVERT JUMPDEST POP POP POP POP PUSH1 0x40 MLOAD RETURNDATASIZE PUSH1 0x1F NOT PUSH1 0x1F DUP3 ADD AND DUP3 ADD DUP1 PUSH1 0x40 MSTORE POP DUP2 ADD SWAP1 PUSH2 0x2EA SWAP2 SWAP1 PUSH2 0xB18 JUMP JUMPDEST POP JUMP JUMPDEST PUSH1 0x0 PUSH2 0x2FB DUP4 CALLER ADDRESS DUP8 PUSH2 0x72B JUMP JUMPDEST PUSH2 0x326 DUP4 PUSH32 0x0 DUP7 PUSH2 0x883 JUMP JUMPDEST PUSH1 0x40 DUP1 MLOAD PUSH2 0x100 DUP2 ADD DUP3 MSTORE PUSH1 0x1 PUSH1 0x1 PUSH1 0xA0 SHL SUB DUP1 DUP7 AND DUP3 MSTORE DUP5 DUP2 AND PUSH1 0x20 DUP4 ADD MSTORE PUSH2 0xBB8 DUP3 DUP5 ADD MSTORE CALLER PUSH1 0x60 DUP4 ADD MSTORE TIMESTAMP PUSH1 0x80 DUP4 ADD MSTORE PUSH1 0xA0 DUP3 ADD DUP9 SWAP1 MSTORE PUSH1 0xC0 DUP3 ADD DUP8 SWAP1 MSTORE PUSH1 0x0 PUSH1 0xE0 DUP4 ADD MSTORE SWAP2 MLOAD PUSH4 0x1B67C433 PUSH1 0xE3 SHL DUP2 MSTORE SWAP1 SWAP2 PUSH32 0x0 AND SWAP1 PUSH4 0xDB3E2198 SWAP1 PUSH2 0x3B3 SWAP1 DUP5 SWAP1 PUSH1 0x4 ADD PUSH2 0xD61 JUMP JUMPDEST PUSH1 0x20 PUSH1 0x40 MLOAD DUP1 DUP4 SUB DUP2 PUSH1 0x0 DUP8 DUP1 EXTCODESIZE ISZERO DUP1 ISZERO PUSH2 0x3CD JUMPI PUSH1 0x0 DUP1 REVERT JUMPDEST POP GAS CALL ISZERO DUP1 ISZERO PUSH2 0x3E1 JUMPI RETURNDATASIZE PUSH1 0x0 DUP1 RETURNDATACOPY RETURNDATASIZE PUSH1 0x0 REVERT JUMPDEST POP POP POP POP PUSH1 0x40 MLOAD RETURNDATASIZE PUSH1 0x1F NOT PUSH1 0x1F DUP3 ADD AND DUP3 ADD DUP1 PUSH1 0x40 MSTORE POP DUP2 ADD SWAP1 PUSH2 0x405 SWAP2 SWAP1 PUSH2 0xB3B JUMP JUMPDEST SWAP2 POP DUP5 DUP3 LT ISZERO PUSH2 0x448 JUMPI PUSH2 0x43B DUP5 PUSH32 0x0 PUSH1 0x0 PUSH2 0x883 JUMP JUMPDEST PUSH2 0x448 DUP5 CALLER DUP5 DUP9 SUB PUSH2 0x9D1 JUMP JUMPDEST POP SWAP5 SWAP4 POP POP POP POP JUMP JUMPDEST PUSH32 0x0 SWAP1 JUMP JUMPDEST PUSH20 0xB6C322FA3D8E0A60AFEB17512905EB2229CE7DA5 DUP2 JUMP JUMPDEST PUSH1 0x0 PUSH1 0x1 PUSH1 0x1 PUSH1 0xA0 SHL SUB DUP5 AND PUSH20 0xC1664F994FD3991F98AE944BC16B9AED673EF5FD EQ DUP1 PUSH2 0x4D6 JUMPI POP PUSH1 0x1 PUSH1 0x1 PUSH1 0xA0 SHL SUB DUP5 AND PUSH20 0xB6C322FA3D8E0A60AFEB17512905EB2229CE7DA5 EQ JUMPDEST PUSH2 0x4FB JUMPI PUSH1 0x40 MLOAD PUSH3 0x461BCD PUSH1 0xE5 SHL DUP2 MSTORE PUSH1 0x4 ADD PUSH2 0x4F2 SWAP1 PUSH2 0xD34 JUMP JUMPDEST PUSH1 0x40 MLOAD DUP1 SWAP2 SUB SWAP1 REVERT JUMPDEST PUSH1 0x1 PUSH1 0x1 PUSH1 0xA0 SHL SUB DUP4 AND PUSH20 0xC1664F994FD3991F98AE944BC16B9AED673EF5FD EQ DUP1 PUSH2 0x542 JUMPI POP PUSH1 0x1 PUSH1 0x1 PUSH1 0xA0 SHL SUB DUP4 AND PUSH20 0xB6C322FA3D8E0A60AFEB17512905EB2229CE7DA5 EQ JUMPDEST PUSH2 0x55E JUMPI PUSH1 0x40 MLOAD PUSH3 0x461BCD PUSH1 0xE5 SHL DUP2 MSTORE PUSH1 0x4 ADD PUSH2 0x4F2 SWAP1 PUSH2 0xD06 JUMP JUMPDEST DUP3 PUSH1 0x1 PUSH1 0x1 PUSH1 0xA0 SHL SUB AND DUP5 PUSH1 0x1 PUSH1 0x1 PUSH1 0xA0 SHL SUB AND EQ ISZERO PUSH2 0x590 JUMPI PUSH1 0x40 MLOAD PUSH3 0x461BCD PUSH1 0xE5 SHL DUP2 MSTORE PUSH1 0x4 ADD PUSH2 0x4F2 SWAP1 PUSH2 0xCBD JUMP JUMPDEST PUSH2 0x59C DUP5 CALLER ADDRESS DUP9 PUSH2 0x72B JUMP JUMPDEST PUSH2 0x5C7 DUP5 PUSH32 0x0 DUP8 PUSH2 0x883 JUMP JUMPDEST PUSH1 0x40 DUP1 MLOAD PUSH2 0x100 DUP2 ADD DUP3 MSTORE PUSH1 0x1 PUSH1 0x1 PUSH1 0xA0 SHL SUB DUP1 DUP8 AND DUP3 MSTORE DUP6 DUP2 AND PUSH1 0x20 DUP4 ADD MSTORE PUSH3 0xFFFFFF DUP6 AND DUP3 DUP5 ADD MSTORE CALLER PUSH1 0x60 DUP4 ADD MSTORE TIMESTAMP PUSH1 0x80 DUP4 ADD MSTORE PUSH1 0xA0 DUP3 ADD DUP9 SWAP1 MSTORE PUSH1 0x0 PUSH1 0xC0 DUP4 ADD DUP2 SWAP1 MSTORE PUSH1 0xE0 DUP4 ADD MSTORE SWAP2 MLOAD PUSH4 0x414BF389 PUSH1 0xE0 SHL DUP2 MSTORE SWAP1 SWAP2 PUSH32 0x0 AND SWAP1 PUSH4 0x414BF389 SWAP1 PUSH2 0x657 SWAP1 DUP5 SWAP1 PUSH1 0x4 ADD PUSH2 0xD61 JUMP JUMPDEST PUSH1 0x20 PUSH1 0x40 MLOAD DUP1 DUP4 SUB DUP2 PUSH1 0x0 DUP8 DUP1 EXTCODESIZE ISZERO DUP1 ISZERO PUSH2 0x671 JUMPI PUSH1 0x0 DUP1 REVERT JUMPDEST POP GAS CALL ISZERO DUP1 ISZERO PUSH2 0x685 JUMPI RETURNDATASIZE PUSH1 0x0 DUP1 RETURNDATACOPY RETURNDATASIZE PUSH1 0x0 REVERT JUMPDEST POP POP POP POP PUSH1 0x40 MLOAD RETURNDATASIZE PUSH1 0x1F NOT PUSH1 0x1F DUP3 ADD AND DUP3 ADD DUP1 PUSH1 0x40 MSTORE POP DUP2 ADD SWAP1 PUSH2 0x6A9 SWAP2 SWAP1 PUSH2 0xB3B JUMP JUMPDEST SWAP2 POP PUSH1 0x0 DUP3 GT PUSH2 0x448 JUMPI PUSH1 0x40 MLOAD PUSH3 0x461BCD PUSH1 0xE5 SHL DUP2 MSTORE PUSH1 0x4 ADD PUSH2 0x4F2 SWAP1 PUSH2 0xC86 JUMP JUMPDEST PUSH32 0x0 DUP2 JUMP JUMPDEST PUSH32 0x0 DUP2 JUMP JUMPDEST PUSH20 0xC1664F994FD3991F98AE944BC16B9AED673EF5FD DUP2 JUMP JUMPDEST PUSH1 0x40 DUP1 MLOAD PUSH1 0x1 PUSH1 0x1 PUSH1 0xA0 SHL SUB DUP6 DUP2 AND PUSH1 0x24 DUP4 ADD MSTORE DUP5 DUP2 AND PUSH1 0x44 DUP4 ADD MSTORE PUSH1 0x64 DUP1 DUP4 ADD DUP6 SWAP1 MSTORE DUP4 MLOAD DUP1 DUP5 SUB SWAP1 SWAP2 ADD DUP2 MSTORE PUSH1 0x84 SWAP1 SWAP3 ADD DUP4 MSTORE PUSH1 0x20 DUP3 ADD DUP1 MLOAD PUSH1 0x1 PUSH1 0x1 PUSH1 0xE0 SHL SUB AND PUSH4 0x23B872DD PUSH1 0xE0 SHL OR DUP2 MSTORE SWAP3 MLOAD DUP3 MLOAD PUSH1 0x0 SWAP5 DUP6 SWAP5 SWAP4 DUP11 AND SWAP4 SWAP3 SWAP2 DUP3 SWAP2 SWAP1 DUP1 DUP4 DUP4 JUMPDEST PUSH1 0x20 DUP4 LT PUSH2 0x7AF JUMPI DUP1 MLOAD DUP3 MSTORE PUSH1 0x1F NOT SWAP1 SWAP3 ADD SWAP2 PUSH1 0x20 SWAP2 DUP3 ADD SWAP2 ADD PUSH2 0x790 JUMP JUMPDEST PUSH1 0x1 DUP4 PUSH1 0x20 SUB PUSH2 0x100 EXP SUB DUP1 NOT DUP3 MLOAD AND DUP2 DUP5 MLOAD AND DUP1 DUP3 OR DUP6 MSTORE POP POP POP POP POP POP SWAP1 POP ADD SWAP2 POP POP PUSH1 0x0 PUSH1 0x40 MLOAD DUP1 DUP4 SUB DUP2 PUSH1 0x0 DUP7 GAS CALL SWAP2 POP POP RETURNDATASIZE DUP1 PUSH1 0x0 DUP2 EQ PUSH2 0x811 JUMPI PUSH1 0x40 MLOAD SWAP2 POP PUSH1 0x1F NOT PUSH1 0x3F RETURNDATASIZE ADD AND DUP3 ADD PUSH1 0x40 MSTORE RETURNDATASIZE DUP3 MSTORE RETURNDATASIZE PUSH1 0x0 PUSH1 0x20 DUP5 ADD RETURNDATACOPY PUSH2 0x816 JUMP JUMPDEST PUSH1 0x60 SWAP2 POP JUMPDEST POP SWAP2 POP SWAP2 POP DUP2 DUP1 ISZERO PUSH2 0x844 JUMPI POP DUP1 MLOAD ISZERO DUP1 PUSH2 0x844 JUMPI POP DUP1 DUP1 PUSH1 0x20 ADD SWAP1 MLOAD PUSH1 0x20 DUP2 LT ISZERO PUSH2 0x841 JUMPI PUSH1 0x0 DUP1 REVERT JUMPDEST POP MLOAD JUMPDEST PUSH2 0x87B JUMPI PUSH1 0x40 DUP1 MLOAD PUSH3 0x461BCD PUSH1 0xE5 SHL DUP2 MSTORE PUSH1 0x20 PUSH1 0x4 DUP3 ADD MSTORE PUSH1 0x3 PUSH1 0x24 DUP3 ADD MSTORE PUSH3 0x29AA23 PUSH1 0xE9 SHL PUSH1 0x44 DUP3 ADD MSTORE SWAP1 MLOAD SWAP1 DUP2 SWAP1 SUB PUSH1 0x64 ADD SWAP1 REVERT JUMPDEST POP POP POP POP POP POP JUMP JUMPDEST PUSH1 0x40 DUP1 MLOAD PUSH1 0x1 PUSH1 0x1 PUSH1 0xA0 SHL SUB DUP5 DUP2 AND PUSH1 0x24 DUP4 ADD MSTORE PUSH1 0x44 DUP1 DUP4 ADD DUP6 SWAP1 MSTORE DUP4 MLOAD DUP1 DUP5 SUB SWAP1 SWAP2 ADD DUP2 MSTORE PUSH1 0x64 SWAP1 SWAP3 ADD DUP4 MSTORE PUSH1 0x20 DUP3 ADD DUP1 MLOAD PUSH1 0x1 PUSH1 0x1 PUSH1 0xE0 SHL SUB AND PUSH4 0x95EA7B3 PUSH1 0xE0 SHL OR DUP2 MSTORE SWAP3 MLOAD DUP3 MLOAD PUSH1 0x0 SWAP5 DUP6 SWAP5 SWAP4 DUP10 AND SWAP4 SWAP3 SWAP2 DUP3 SWAP2 SWAP1 DUP1 DUP4 DUP4 JUMPDEST PUSH1 0x20 DUP4 LT PUSH2 0x8FF JUMPI DUP1 MLOAD DUP3 MSTORE PUSH1 0x1F NOT SWAP1 SWAP3 ADD SWAP2 PUSH1 0x20 SWAP2 DUP3 ADD SWAP2 ADD PUSH2 0x8E0 JUMP JUMPDEST PUSH1 0x1 DUP4 PUSH1 0x20 SUB PUSH2 0x100 EXP SUB DUP1 NOT DUP3 MLOAD AND DUP2 DUP5 MLOAD AND DUP1 DUP3 OR DUP6 MSTORE POP POP POP POP POP POP SWAP1 POP ADD SWAP2 POP POP PUSH1 0x0 PUSH1 0x40 MLOAD DUP1 DUP4 SUB DUP2 PUSH1 0x0 DUP7 GAS CALL SWAP2 POP POP RETURNDATASIZE DUP1 PUSH1 0x0 DUP2 EQ PUSH2 0x961 JUMPI PUSH1 0x40 MLOAD SWAP2 POP PUSH1 0x1F NOT PUSH1 0x3F RETURNDATASIZE ADD AND DUP3 ADD PUSH1 0x40 MSTORE RETURNDATASIZE DUP3 MSTORE RETURNDATASIZE PUSH1 0x0 PUSH1 0x20 DUP5 ADD RETURNDATACOPY PUSH2 0x966 JUMP JUMPDEST PUSH1 0x60 SWAP2 POP JUMPDEST POP SWAP2 POP SWAP2 POP DUP2 DUP1 ISZERO PUSH2 0x994 JUMPI POP DUP1 MLOAD ISZERO DUP1 PUSH2 0x994 JUMPI POP DUP1 DUP1 PUSH1 0x20 ADD SWAP1 MLOAD PUSH1 0x20 DUP2 LT ISZERO PUSH2 0x991 JUMPI PUSH1 0x0 DUP1 REVERT JUMPDEST POP MLOAD JUMPDEST PUSH2 0x9CA JUMPI PUSH1 0x40 DUP1 MLOAD PUSH3 0x461BCD PUSH1 0xE5 SHL DUP2 MSTORE PUSH1 0x20 PUSH1 0x4 DUP3 ADD MSTORE PUSH1 0x2 PUSH1 0x24 DUP3 ADD MSTORE PUSH2 0x5341 PUSH1 0xF0 SHL PUSH1 0x44 DUP3 ADD MSTORE SWAP1 MLOAD SWAP1 DUP2 SWAP1 SUB PUSH1 0x64 ADD SWAP1 REVERT JUMPDEST POP POP POP POP POP JUMP JUMPDEST PUSH1 0x40 DUP1 MLOAD PUSH1 0x1 PUSH1 0x1 PUSH1 0xA0 SHL SUB DUP5 DUP2 AND PUSH1 0x24 DUP4 ADD MSTORE PUSH1 0x44 DUP1 DUP4 ADD DUP6 SWAP1 MSTORE DUP4 MLOAD DUP1 DUP5 SUB SWAP1 SWAP2 ADD DUP2 MSTORE PUSH1 0x64 SWAP1 SWAP3 ADD DUP4 MSTORE PUSH1 0x20 DUP3 ADD DUP1 MLOAD PUSH1 0x1 PUSH1 0x1 PUSH1 0xE0 SHL SUB AND PUSH4 0xA9059CBB PUSH1 0xE0 SHL OR DUP2 MSTORE SWAP3 MLOAD DUP3 MLOAD PUSH1 0x0 SWAP5 DUP6 SWAP5 SWAP4 DUP10 AND SWAP4 SWAP3 SWAP2 DUP3 SWAP2 SWAP1 DUP1 DUP4 DUP4 JUMPDEST PUSH1 0x20 DUP4 LT PUSH2 0xA4D JUMPI DUP1 MLOAD DUP3 MSTORE PUSH1 0x1F NOT SWAP1 SWAP3 ADD SWAP2 PUSH1 0x20 SWAP2 DUP3 ADD SWAP2 ADD PUSH2 0xA2E JUMP JUMPDEST PUSH1 0x1 DUP4 PUSH1 0x20 SUB PUSH2 0x100 EXP SUB DUP1 NOT DUP3 MLOAD AND DUP2 DUP5 MLOAD AND DUP1 DUP3 OR DUP6 MSTORE POP POP POP POP POP POP SWAP1 POP ADD SWAP2 POP POP PUSH1 0x0 PUSH1 0x40 MLOAD DUP1 DUP4 SUB DUP2 PUSH1 0x0 DUP7 GAS CALL SWAP2 POP POP RETURNDATASIZE DUP1 PUSH1 0x0 DUP2 EQ PUSH2 0xAAF JUMPI PUSH1 0x40 MLOAD SWAP2 POP PUSH1 0x1F NOT PUSH1 0x3F RETURNDATASIZE ADD AND DUP3 ADD PUSH1 0x40 MSTORE RETURNDATASIZE DUP3 MSTORE RETURNDATASIZE PUSH1 0x0 PUSH1 0x20 DUP5 ADD RETURNDATACOPY PUSH2 0xAB4 JUMP JUMPDEST PUSH1 0x60 SWAP2 POP JUMPDEST POP SWAP2 POP SWAP2 POP DUP2 DUP1 ISZERO PUSH2 0xAE2 JUMPI POP DUP1 MLOAD ISZERO DUP1 PUSH2 0xAE2 JUMPI POP DUP1 DUP1 PUSH1 0x20 ADD SWAP1 MLOAD PUSH1 0x20 DUP2 LT ISZERO PUSH2 0xADF JUMPI PUSH1 0x0 DUP1 REVERT JUMPDEST POP MLOAD JUMPDEST PUSH2 0x9CA JUMPI PUSH1 0x40 DUP1 MLOAD PUSH3 0x461BCD PUSH1 0xE5 SHL DUP2 MSTORE PUSH1 0x20 PUSH1 0x4 DUP3 ADD MSTORE PUSH1 0x2 PUSH1 0x24 DUP3 ADD MSTORE PUSH2 0x14D5 PUSH1 0xF2 SHL PUSH1 0x44 DUP3 ADD MSTORE SWAP1 MLOAD SWAP1 DUP2 SWAP1 SUB PUSH1 0x64 ADD SWAP1 REVERT JUMPDEST PUSH1 0x0 PUSH1 0x20 DUP3 DUP5 SUB SLT ISZERO PUSH2 0xB29 JUMPI DUP1 DUP2 REVERT JUMPDEST DUP2 MLOAD PUSH2 0xB34 DUP2 PUSH2 0xD8F JUMP JUMPDEST SWAP4 SWAP3 POP POP POP JUMP JUMPDEST PUSH1 0x0 PUSH1 0x20 DUP3 DUP5 SUB SLT ISZERO PUSH2 0xB4C JUMPI DUP1 DUP2 REVERT JUMPDEST POP MLOAD SWAP2 SWAP1 POP JUMP JUMPDEST PUSH1 0x0 DUP1 PUSH1 0x0 DUP1 PUSH1 0x80 DUP6 DUP8 SUB SLT ISZERO PUSH2 0xB68 JUMPI DUP3 DUP4 REVERT JUMPDEST DUP5 CALLDATALOAD SWAP4 POP PUSH1 0x20 DUP6 ADD CALLDATALOAD PUSH2 0xB7A DUP2 PUSH2 0xD8F JUMP JUMPDEST SWAP3 POP PUSH1 0x40 DUP6 ADD CALLDATALOAD PUSH2 0xB8A DUP2 PUSH2 0xD8F JUMP JUMPDEST SWAP2 POP PUSH1 0x60 DUP6 ADD CALLDATALOAD PUSH3 0xFFFFFF DUP2 AND DUP2 EQ PUSH2 0xBA1 JUMPI DUP2 DUP3 REVERT JUMPDEST SWAP4 SWAP7 SWAP3 SWAP6 POP SWAP1 SWAP4 POP POP JUMP JUMPDEST PUSH1 0x0 DUP1 PUSH1 0x0 DUP1 PUSH1 0x80 DUP6 DUP8 SUB SLT ISZERO PUSH2 0xBC1 JUMPI DUP4 DUP5 REVERT JUMPDEST DUP5 CALLDATALOAD SWAP4 POP PUSH1 0x20 DUP6 ADD CALLDATALOAD SWAP3 POP PUSH1 0x40 DUP6 ADD CALLDATALOAD PUSH2 0xBDA DUP2 PUSH2 0xD8F JUMP JUMPDEST SWAP2 POP PUSH1 0x60 DUP6 ADD CALLDATALOAD PUSH2 0xBA1 DUP2 PUSH2 0xD8F JUMP JUMPDEST DUP1 MLOAD PUSH1 0x1 PUSH1 0x1 PUSH1 0xA0 SHL SUB SWAP1 DUP2 AND DUP4 MSTORE PUSH1 0x20 DUP1 DUP4 ADD MLOAD DUP3 AND SWAP1 DUP5 ADD MSTORE PUSH1 0x40 DUP1 DUP4 ADD MLOAD PUSH3 0xFFFFFF AND SWAP1 DUP5 ADD MSTORE PUSH1 0x60 DUP1 DUP4 ADD MLOAD DUP3 AND SWAP1 DUP5 ADD MSTORE PUSH1 0x80 DUP1 DUP4 ADD MLOAD SWAP1 DUP5 ADD MSTORE PUSH1 0xA0 DUP3 DUP2 ADD MLOAD SWAP1 DUP5 ADD MSTORE PUSH1 0xC0 DUP1 DUP4 ADD MLOAD SWAP1 DUP5 ADD MSTORE PUSH1 0xE0 SWAP2 DUP3 ADD MLOAD AND SWAP2 ADD MSTORE JUMP JUMPDEST PUSH1 0x1 PUSH1 0x1 PUSH1 0xA0 SHL SUB SWAP2 SWAP1 SWAP2 AND DUP2 MSTORE PUSH1 0x20 ADD SWAP1 JUMP JUMPDEST PUSH1 0x1 PUSH1 0x1 PUSH1 0xA0 SHL SUB SWAP4 DUP5 AND DUP2 MSTORE SWAP2 SWAP1 SWAP3 AND PUSH1 0x20 DUP3 ADD MSTORE PUSH3 0xFFFFFF SWAP1 SWAP2 AND PUSH1 0x40 DUP3 ADD MSTORE PUSH1 0x60 ADD SWAP1 JUMP JUMPDEST PUSH1 0x20 DUP1 DUP3 MSTORE PUSH1 0x1F SWAP1 DUP3 ADD MSTORE PUSH32 0x53776170206661696C65643A206E6F20746F6B656E7320726563656976656400 PUSH1 0x40 DUP3 ADD MSTORE PUSH1 0x60 ADD SWAP1 JUMP JUMPDEST PUSH1 0x20 DUP1 DUP3 MSTORE PUSH1 0x29 SWAP1 DUP3 ADD MSTORE PUSH32 0x496E70757420616E64206F757470757420746F6B656E73206D75737420626520 PUSH1 0x40 DUP3 ADD MSTORE PUSH9 0x191A5999995C995B9D PUSH1 0xBA SHL PUSH1 0x60 DUP3 ADD MSTORE PUSH1 0x80 ADD SWAP1 JUMP JUMPDEST PUSH1 0x20 DUP1 DUP3 MSTORE PUSH1 0x14 SWAP1 DUP3 ADD MSTORE PUSH20 0x24B73B30B634B21037BABA383ABA103A37B5B2B7 PUSH1 0x61 SHL PUSH1 0x40 DUP3 ADD MSTORE PUSH1 0x60 ADD SWAP1 JUMP JUMPDEST PUSH1 0x20 DUP1 DUP3 MSTORE PUSH1 0x13 SWAP1 DUP3 ADD MSTORE PUSH19 0x24B73B30B634B21034B7383ABA103A37B5B2B7 PUSH1 0x69 SHL PUSH1 0x40 DUP3 ADD MSTORE PUSH1 0x60 ADD SWAP1 JUMP JUMPDEST PUSH2 0x100 DUP2 ADD PUSH2 0xD70 DUP3 DUP5 PUSH2 0xBEA JUMP JUMPDEST SWAP3 SWAP2 POP POP JUMP JUMPDEST PUSH3 0xFFFFFF SWAP2 SWAP1 SWAP2 AND DUP2 MSTORE PUSH1 0x20 ADD SWAP1 JUMP JUMPDEST SWAP1 DUP2 MSTORE PUSH1 0x20 ADD SWAP1 JUMP JUMPDEST PUSH1 0x1 PUSH1 0x1 PUSH1 0xA0 SHL SUB DUP2 AND DUP2 EQ PUSH2 0x2EA JUMPI PUSH1 0x0 DUP1 REVERT INVALID LOG2 PUSH5 0x6970667358 0x22 SLT KECCAK256 0xC5 PUSH18 0xE6D00FED8DAC578D0FFA0593B6A2028A00C3 SHL PUSH6 0xF0C9BAF0FE00 DUP11 0xB5 DUP14 0xAF PUSH5 0x736F6C6343 STOP SMOD MOD STOP CALLER "},"methodIdentifiers":{"MOR()":"d59fb3c3","WETH()":"ad5c4648","checkPool()":"4771218a","createPool()":"9a06b113","factory()":"c45a0155","getFactoryAddress()":"a9c2e36c","getPoolDirect()":"dd8390e3","poolFee()":"089fe6aa","swapExactInputSingle(uint256,address,address,uint24)":"bd13338c","swapExactOutputSingle(uint256,uint256,address,address)":"9d0b14c5","swapRouter()":"c31c9c07"}}}}}