{
  "_format": "hh-sol-artifact-1",
  "contractName": "TokenSwap",
  "sourceName": "contracts/TokenSwap.sol",
  "abi": [
    {
      "inputs": [
        {
          "internalType": "contract ISwapRouter",
          "name": "_swapRouter",
          "type": "address"
        },
        {
          "internalType": "contract IUniswapV3Factory",
          "name": "_factory",
          "type": "address"
        }
      ],
      "stateMutability": "nonpayable",
      "type": "constructor"
    },
    {
      "inputs": [],
      "name": "MOR",
      "outputs": [
        {
          "internalType": "address",
          "name": "",
          "type": "address"
        }
      ],
      "stateMutability": "view",
      "type": "function"
    },
    {
      "inputs": [],
      "name": "WETH",
      "outputs": [
        {
          "internalType": "address",
          "name": "",
          "type": "address"
        }
      ],
      "stateMutability": "view",
      "type": "function"
    },
    {
      "inputs": [],
      "name": "checkPool",
      "outputs": [
        {
          "internalType": "address",
          "name": "",
          "type": "address"
        }
      ],
      "stateMutability": "view",
      "type": "function"
    },
    {
      "inputs": [],
      "name": "createPool",
      "outputs": [],
      "stateMutability": "nonpayable",
      "type": "function"
    },
    {
      "inputs": [],
      "name": "factory",
      "outputs": [
        {
          "internalType": "contract IUniswapV3Factory",
          "name": "",
          "type": "address"
        }
      ],
      "stateMutability": "view",
      "type": "function"
    },
    {
      "inputs": [],
      "name": "getFactoryAddress",
      "outputs": [
        {
          "internalType": "address",
          "name": "",
          "type": "address"
        }
      ],
      "stateMutability": "view",
      "type": "function"
    },
    {
      "inputs": [],
      "name": "getPoolDirect",
      "outputs": [
        {
          "internalType": "address",
          "name": "",
          "type": "address"
        }
      ],
      "stateMutability": "view",
      "type": "function"
    },
    {
      "inputs": [],
      "name": "poolFee",
      "outputs": [
        {
          "internalType": "uint24",
          "name": "",
          "type": "uint24"
        }
      ],
      "stateMutability": "view",
      "type": "function"
    },
    {
      "inputs": [
        {
          "internalType": "uint256",
          "name": "amountIn",
          "type": "uint256"
        },
        {
          "internalType": "address",
          "name": "tokenIn",
          "type": "address"
        },
        {
          "internalType": "address",
          "name": "tokenOut",
          "type": "address"
        },
        {
          "internalType": "uint24",
          "name": "_poolFee",
          "type": "uint24"
        }
      ],
      "name": "swapExactInputSingle",
      "outputs": [
        {
          "internalType": "uint256",
          "name": "amountOut",
          "type": "uint256"
        }
      ],
      "stateMutability": "nonpayable",
      "type": "function"
    },
    {
      "inputs": [
        {
          "internalType": "uint256",
          "name": "amountOut",
          "type": "uint256"
        },
        {
          "internalType": "uint256",
          "name": "amountInMaximum",
          "type": "uint256"
        },
        {
          "internalType": "address",
          "name": "tokenIn",
          "type": "address"
        },
        {
          "internalType": "address",
          "name": "tokenOut",
          "type": "address"
        }
      ],
      "name": "swapExactOutputSingle",
      "outputs": [
        {
          "internalType": "uint256",
          "name": "amountIn",
          "type": "uint256"
        }
      ],
      "stateMutability": "nonpayable",
      "type": "function"
    },
    {
      "inputs": [],
      "name": "swapRouter",
      "outputs": [
        {
          "internalType": "contract ISwapRouter",
          "name": "",
          "type": "address"
        }
      ],
      "stateMutability": "view",
      "type": "function"
    }
  ],
  "bytecode": "0x60c060405234801561001057600080fd5b50604051610ec9380380610ec983398101604081905261002f9161004d565b6001600160601b0319606092831b8116608052911b1660a05261009e565b6000806040838503121561005f578182fd5b825161006a81610086565b602084015190925061007b81610086565b809150509250929050565b6001600160a01b038116811461009b57600080fd5b50565b60805160601c60a05160601c610dda6100ef600039806101665280610235528061045352806106f1525080610301528061037e528061041552806105a2528061062252806106cd5250610dda6000f3fe608060405234801561001057600080fd5b50600436106100a95760003560e01c8063ad5c464811610071578063ad5c464814610113578063bd13338c1461011b578063c31c9c071461012e578063c45a015514610136578063d59fb3c31461013e578063dd8390e3146100cc576100a9565b8063089fe6aa146100ae5780634771218a146100cc5780639a06b113146100e15780639d0b14c5146100eb578063a9c2e36c1461010b575b600080fd5b6100b6610146565b6040516100c39190610d76565b60405180910390f35b6100d461014c565b6040516100c39190610c4a565b6100e961021e565b005b6100fe6100f9366004610bac565b6102ed565b6040516100c39190610d86565b6100d4610451565b6100d4610475565b6100fe610129366004610b53565b61048d565b6100d46106cb565b6100d46106ef565b6100d4610713565b610bb881565b604051630b4c774160e11b81526000906001600160a01b037f00000000000000000000000000000000000000000000000000000000000000001690631698ee82906101c99073c1664f994fd3991f98ae944bc16b9aed673ef5fd9073b6c322fa3d8e0a60afeb17512905eb2229ce7da590610bb890600401610c5e565b60206040518083038186803b1580156101e157600080fd5b505afa1580156101f5573d6000803e3d6000fd5b505050506040513d601f19601f820116820180604052508101906102199190610b18565b905090565b60405163a167129560e01b81526001600160a01b037f0000000000000000000000000000000000000000000000000000000000000000169063a1671295906102989073c1664f994fd3991f98ae944bc16b9aed673ef5fd9073b6c322fa3d8e0a60afeb17512905eb2229ce7da590610bb890600401610c5e565b602060405180830381600087803b1580156102b257600080fd5b505af11580156102c6573d6000803e3d6000fd5b505050506040513d601f19601f820116820180604052508101906102ea9190610b18565b50565b60006102fb8333308761072b565b610326837f000000000000000000000000000000000000000000000000000000000000000086610883565b60408051610100810182526001600160a01b0380861682528481166020830152610bb88284015233606083015242608083015260a0820188905260c08201879052600060e08301529151631b67c43360e31b815290917f0000000000000000000000000000000000000000000000000000000000000000169063db3e2198906103b3908490600401610d61565b602060405180830381600087803b1580156103cd57600080fd5b505af11580156103e1573d6000803e3d6000fd5b505050506040513d601f19601f820116820180604052508101906104059190610b3b565b9150848210156104485761043b847f00000000000000000000000000000000000000000000000000000000000000006000610883565b61044884338488036109d1565b50949350505050565b7f000000000000000000000000000000000000000000000000000000000000000090565b73b6c322fa3d8e0a60afeb17512905eb2229ce7da581565b60006001600160a01b03841673c1664f994fd3991f98ae944bc16b9aed673ef5fd14806104d657506001600160a01b03841673b6c322fa3d8e0a60afeb17512905eb2229ce7da5145b6104fb5760405162461bcd60e51b81526004016104f290610d34565b60405180910390fd5b6001600160a01b03831673c1664f994fd3991f98ae944bc16b9aed673ef5fd148061054257506001600160a01b03831673b6c322fa3d8e0a60afeb17512905eb2229ce7da5145b61055e5760405162461bcd60e51b81526004016104f290610d06565b826001600160a01b0316846001600160a01b031614156105905760405162461bcd60e51b81526004016104f290610cbd565b61059c8433308861072b565b6105c7847f000000000000000000000000000000000000000000000000000000000000000087610883565b60408051610100810182526001600160a01b038087168252858116602083015262ffffff85168284015233606083015242608083015260a08201889052600060c0830181905260e0830152915163414bf38960e01b815290917f0000000000000000000000000000000000000000000000000000000000000000169063414bf38990610657908490600401610d61565b602060405180830381600087803b15801561067157600080fd5b505af1158015610685573d6000803e3d6000fd5b505050506040513d601f19601f820116820180604052508101906106a99190610b3b565b9150600082116104485760405162461bcd60e51b81526004016104f290610c86565b7f000000000000000000000000000000000000000000000000000000000000000081565b7f000000000000000000000000000000000000000000000000000000000000000081565b73c1664f994fd3991f98ae944bc16b9aed673ef5fd81565b604080516001600160a01b0385811660248301528481166044830152606480830185905283518084039091018152608490920183526020820180516001600160e01b03166323b872dd60e01b178152925182516000948594938a169392918291908083835b602083106107af5780518252601f199092019160209182019101610790565b6001836020036101000a0380198251168184511680821785525050505050509050019150506000604051808303816000865af19150503d8060008114610811576040519150601f19603f3d011682016040523d82523d6000602084013e610816565b606091505b5091509150818015610844575080511580610844575080806020019051602081101561084157600080fd5b50515b61087b576040805162461bcd60e51b815260206004820152600360248201526229aa2360e91b604482015290519081900360640190fd5b505050505050565b604080516001600160a01b038481166024830152604480830185905283518084039091018152606490920183526020820180516001600160e01b031663095ea7b360e01b1781529251825160009485949389169392918291908083835b602083106108ff5780518252601f1990920191602091820191016108e0565b6001836020036101000a0380198251168184511680821785525050505050509050019150506000604051808303816000865af19150503d8060008114610961576040519150601f19603f3d011682016040523d82523d6000602084013e610966565b606091505b5091509150818015610994575080511580610994575080806020019051602081101561099157600080fd5b50515b6109ca576040805162461bcd60e51b8152602060048201526002602482015261534160f01b604482015290519081900360640190fd5b5050505050565b604080516001600160a01b038481166024830152604480830185905283518084039091018152606490920183526020820180516001600160e01b031663a9059cbb60e01b1781529251825160009485949389169392918291908083835b60208310610a4d5780518252601f199092019160209182019101610a2e565b6001836020036101000a0380198251168184511680821785525050505050509050019150506000604051808303816000865af19150503d8060008114610aaf576040519150601f19603f3d011682016040523d82523d6000602084013e610ab4565b606091505b5091509150818015610ae2575080511580610ae25750808060200190516020811015610adf57600080fd5b50515b6109ca576040805162461bcd60e51b815260206004820152600260248201526114d560f21b604482015290519081900360640190fd5b600060208284031215610b29578081fd5b8151610b3481610d8f565b9392505050565b600060208284031215610b4c578081fd5b5051919050565b60008060008060808587031215610b68578283fd5b843593506020850135610b7a81610d8f565b92506040850135610b8a81610d8f565b9150606085013562ffffff81168114610ba1578182fd5b939692955090935050565b60008060008060808587031215610bc1578384fd5b84359350602085013592506040850135610bda81610d8f565b91506060850135610ba181610d8f565b80516001600160a01b03908116835260208083015182169084015260408083015162ffffff16908401526060808301518216908401526080808301519084015260a0828101519084015260c0808301519084015260e09182015116910152565b6001600160a01b0391909116815260200190565b6001600160a01b03938416815291909216602082015262ffffff909116604082015260600190565b6020808252601f908201527f53776170206661696c65643a206e6f20746f6b656e7320726563656976656400604082015260600190565b60208082526029908201527f496e70757420616e64206f757470757420746f6b656e73206d75737420626520604082015268191a5999995c995b9d60ba1b606082015260800190565b60208082526014908201527324b73b30b634b21037baba383aba103a37b5b2b760611b604082015260600190565b60208082526013908201527224b73b30b634b21034b7383aba103a37b5b2b760691b604082015260600190565b6101008101610d708284610bea565b92915050565b62ffffff91909116815260200190565b90815260200190565b6001600160a01b03811681146102ea57600080fdfea2646970667358221220c571e6d00fed8dac578d0ffa0593b6a2028a00c31b65f0c9baf0fe008ab58daf64736f6c63430007060033",
  "linkReferences": {},
  "deployedLinkReferences": {}
}