{
  "_format": "hh-sol-artifact-1",
  "contractName": "SwapExamples",
  "sourceName": "contracts/SwapExamples.sol",
  "abi": [
    {
      "inputs": [
        {
          "internalType": "contract ISwapRouter",
          "name": "_swapRouter",
          "type": "address"
        }
      ],
      "stateMutability": "nonpayable",
      "type": "constructor"
    },
    {
      "inputs": [],
      "name": "MOR",
      "outputs": [
        {
          "internalType": "address",
          "name": "",
          "type": "address"
        }
      ],
      "stateMutability": "view",
      "type": "function"
    },
    {
      "inputs": [],
      "name": "WETH",
      "outputs": [
        {
          "internalType": "address",
          "name": "",
          "type": "address"
        }
      ],
      "stateMutability": "view",
      "type": "function"
    },
    {
      "inputs": [],
      "name": "poolFee",
      "outputs": [
        {
          "internalType": "uint24",
          "name": "",
          "type": "uint24"
        }
      ],
      "stateMutability": "view",
      "type": "function"
    },
    {
      "inputs": [
        {
          "internalType": "uint256",
          "name": "amountIn",
          "type": "uint256"
        }
      ],
      "name": "swapExactInputSingle",
      "outputs": [
        {
          "internalType": "uint256",
          "name": "amountOut",
          "type": "uint256"
        }
      ],
      "stateMutability": "nonpayable",
      "type": "function"
    },
    {
      "inputs": [
        {
          "internalType": "uint256",
          "name": "amountOut",
          "type": "uint256"
        },
        {
          "internalType": "uint256",
          "name": "amountInMaximum",
          "type": "uint256"
        }
      ],
      "name": "swapExactOutputSingle",
      "outputs": [
        {
          "internalType": "uint256",
          "name": "amountIn",
          "type": "uint256"
        }
      ],
      "stateMutability": "nonpayable",
      "type": "function"
    },
    {
      "inputs": [],
      "name": "swapRouter",
      "outputs": [
        {
          "internalType": "contract ISwapRouter",
          "name": "",
          "type": "address"
        }
      ],
      "stateMutability": "view",
      "type": "function"
    }
  ],
  "bytecode": "0x60a060405234801561001057600080fd5b50604051610a32380380610a3283398101604081905261002f91610044565b60601b6001600160601b031916608052610072565b600060208284031215610055578081fd5b81516001600160a01b038116811461006b578182fd5b9392505050565b60805160601c61098a6100a86000398061011f52806101b6528061026652806102c4528061035b528061040e525061098a6000f3fe608060405234801561001057600080fd5b50600436106100625760003560e01c8063089fe6aa1461006757806373bd43ad14610085578063ad5c4648146100a5578063c31c9c07146100ba578063c4b69a18146100c2578063d59fb3c3146100d5575b600080fd5b61006f6100dd565b60405161007c919061093b565b60405180910390f35b610098610093366004610861565b6100e3565b60405161007c919061094b565b6100ad61024c565b60405161007c9190610912565b6100ad610264565b6100986100d0366004610891565b610288565b6100ad61045c565b610bb881565b600061010573c1664f994fd3991f98ae944bc16b9aed673ef5fd333085610474565b61014473c1664f994fd3991f98ae944bc16b9aed673ef5fd7f0000000000000000000000000000000000000000000000000000000000000000846105cc565b604080516101008101825273c1664f994fd3991f98ae944bc16b9aed673ef5fd815273b6c322fa3d8e0a60afeb17512905eb2229ce7da56020820152610bb88183015233606082015242608082015260a08101849052600060c0820181905260e0820152905163414bf38960e01b81527f00000000000000000000000000000000000000000000000000000000000000006001600160a01b03169063414bf389906101f3908490600401610926565b602060405180830381600087803b15801561020d57600080fd5b505af1158015610221573d6000803e3d6000fd5b505050506040513d601f19601f820116820180604052508101906102459190610879565b9392505050565b73b6c322fa3d8e0a60afeb17512905eb2229ce7da581565b7f000000000000000000000000000000000000000000000000000000000000000081565b60006102aa73c1664f994fd3991f98ae944bc16b9aed673ef5fd333085610474565b6102e973c1664f994fd3991f98ae944bc16b9aed673ef5fd7f0000000000000000000000000000000000000000000000000000000000000000846105cc565b604080516101008101825273c1664f994fd3991f98ae944bc16b9aed673ef5fd815273b6c322fa3d8e0a60afeb17512905eb2229ce7da56020820152610bb88183015233606082015242608082015260a0810185905260c08101849052600060e08201529051631b67c43360e31b81527f00000000000000000000000000000000000000000000000000000000000000006001600160a01b03169063db3e219890610398908490600401610926565b602060405180830381600087803b1580156103b257600080fd5b505af11580156103c6573d6000803e3d6000fd5b505050506040513d601f19601f820116820180604052508101906103ea9190610879565b9150828210156104555761043473c1664f994fd3991f98ae944bc16b9aed673ef5fd7f000000000000000000000000000000000000000000000000000000000000000060006105cc565b61045573c1664f994fd3991f98ae944bc16b9aed673ef5fd3384860361071a565b5092915050565b73c1664f994fd3991f98ae944bc16b9aed673ef5fd81565b604080516001600160a01b0385811660248301528481166044830152606480830185905283518084039091018152608490920183526020820180516001600160e01b03166323b872dd60e01b178152925182516000948594938a169392918291908083835b602083106104f85780518252601f1990920191602091820191016104d9565b6001836020036101000a0380198251168184511680821785525050505050509050019150506000604051808303816000865af19150503d806000811461055a576040519150601f19603f3d011682016040523d82523d6000602084013e61055f565b606091505b509150915081801561058d57508051158061058d575080806020019051602081101561058a57600080fd5b50515b6105c4576040805162461bcd60e51b815260206004820152600360248201526229aa2360e91b604482015290519081900360640190fd5b505050505050565b604080516001600160a01b038481166024830152604480830185905283518084039091018152606490920183526020820180516001600160e01b031663095ea7b360e01b1781529251825160009485949389169392918291908083835b602083106106485780518252601f199092019160209182019101610629565b6001836020036101000a0380198251168184511680821785525050505050509050019150506000604051808303816000865af19150503d80600081146106aa576040519150601f19603f3d011682016040523d82523d6000602084013e6106af565b606091505b50915091508180156106dd5750805115806106dd57508080602001905160208110156106da57600080fd5b50515b610713576040805162461bcd60e51b8152602060048201526002602482015261534160f01b604482015290519081900360640190fd5b5050505050565b604080516001600160a01b038481166024830152604480830185905283518084039091018152606490920183526020820180516001600160e01b031663a9059cbb60e01b1781529251825160009485949389169392918291908083835b602083106107965780518252601f199092019160209182019101610777565b6001836020036101000a0380198251168184511680821785525050505050509050019150506000604051808303816000865af19150503d80600081146107f8576040519150601f19603f3d011682016040523d82523d6000602084013e6107fd565b606091505b509150915081801561082b57508051158061082b575080806020019051602081101561082857600080fd5b50515b610713576040805162461bcd60e51b815260206004820152600260248201526114d560f21b604482015290519081900360640190fd5b600060208284031215610872578081fd5b5035919050565b60006020828403121561088a578081fd5b5051919050565b600080604083850312156108a3578081fd5b50508035926020909101359150565b80516001600160a01b03908116835260208083015182169084015260408083015162ffffff16908401526060808301518216908401526080808301519084015260a0828101519084015260c0808301519084015260e09182015116910152565b6001600160a01b0391909116815260200190565b610100810161093582846108b2565b92915050565b62ffffff91909116815260200190565b9081526020019056fea2646970667358221220aee4c165fcafbc192da32a3557830e8b309dfed54d625391445d3da839df28c764736f6c63430007060033",
  "linkReferences": {},
  "deployedLinkReferences": {}
}