{
  "_format": "hh-sol-artifact-1",
  "contractName": "NonfungibleTokenPositionDescriptor",
  "sourceName": "contracts/interfaces/INonfungibleTokenPositionDescriptor.sol",
  "abi": [
    {
      "inputs": [
        {
          "internalType": "address",
          "name": "_WETH9",
          "type": "address"
        }
      ],
      "stateMutability": "nonpayable",
      "type": "constructor"
    },
    {
      "inputs": [],
      "name": "WETH9",
      "outputs": [
        {
          "internalType": "address",
          "name": "",
          "type": "address"
        }
      ],
      "stateMutability": "view",
      "type": "function"
    },
    {
      "inputs": [
        {
          "internalType": "address",
          "name": "token0",
          "type": "address"
        },
        {
          "internalType": "address",
          "name": "token1",
          "type": "address"
        },
        {
          "internalType": "uint256",
          "name": "chainId",
          "type": "uint256"
        }
      ],
      "name": "flipRatio",
      "outputs": [
        {
          "internalType": "bool",
          "name": "",
          "type": "bool"
        }
      ],
      "stateMutability": "view",
      "type": "function"
    },
    {
      "inputs": [
        {
          "internalType": "address",
          "name": "token",
          "type": "address"
        },
        {
          "internalType": "uint256",
          "name": "chainId",
          "type": "uint256"
        }
      ],
      "name": "tokenRatioPriority",
      "outputs": [
        {
          "internalType": "int256",
          "name": "",
          "type": "int256"
        }
      ],
      "stateMutability": "view",
      "type": "function"
    },
    {
      "inputs": [
        {
          "internalType": "contract INonfungiblePositionManager",
          "name": "positionManager",
          "type": "address"
        },
        {
          "internalType": "uint256",
          "name": "tokenId",
          "type": "uint256"
        }
      ],
      "name": "tokenURI",
      "outputs": [
        {
          "internalType": "string",
          "name": "",
          "type": "string"
        }
      ],
      "stateMutability": "view",
      "type": "function"
    }
  ],
  "bytecode": "0x60a060405234801561001057600080fd5b506040516112df3803806112df83398101604081905261002f91610044565b60601b6001600160601b031916608052610072565b600060208284031215610055578081fd5b81516001600160a01b038116811461006b578182fd5b9392505050565b60805160601c61124c6100936000398060d15280610116525061124c6000f3fe608060405234801561001057600080fd5b506004361061004c5760003560e01c80634aa4a4fc146100515780637e5af7711461006f5780639d7b0ea81461008f578063e9dc6375146100af575b600080fd5b6100596100cf565b6040516100669190611075565b60405180910390f35b61008261007d366004610d7b565b6100f3565b6040516100669190611089565b6100a261009d366004610dbb565b610112565b6040516100669190611094565b6100c26100bd366004610dbb565b610257565b604051610066919061109d565b7f000000000000000000000000000000000000000000000000000000000000000081565b60006100ff8383610112565b6101098584610112565b13949350505050565b60007f00000000000000000000000000000000000000000000000000000000000000006001600160a01b0316836001600160a01b031614156101575750606319610251565b816001141561024d576001600160a01b03831673a0b86991c6218b36c1d19d4a2e9eb0ce3606eb48141561018e575061012c610251565b6001600160a01b03831673dac17f958d2ee523a2206206994597c13d831ec714156101bb575060c8610251565b6001600160a01b038316736b175474e89094c44da98b954eedeac495271d0f14156101e857506064610251565b6001600160a01b038316738daebade922df735c38c80c7ebd708af50815faa1415610216575060c719610251565b6001600160a01b038316732260fac5e5542a773aa44fbcfedf7c193bc2c5991415610245575061012b19610251565b506000610251565b5060005b92915050565b60606000806000806000876001600160a01b03166399fbab88886040518263ffffffff1660e01b815260040161028d9190611094565b6101806040518083038186803b1580156102a657600080fd5b505afa1580156102ba573d6000803e3d6000fd5b505050506040513d601f19601f820116820180604052508101906102de9190610f40565b5050505050965096509650965096505050600061039c896001600160a01b031663c45a01556040518163ffffffff1660e01b815260040160206040518083038186803b15801561032d57600080fd5b505afa158015610341573d6000803e3d6000fd5b505050506040513d601f19601f820116820180604052508101906103659190610d58565b6040518060600160405280896001600160a01b03168152602001886001600160a01b031681526020018762ffffff168152506106db565b905060006103ad878761007d6107bf565b9050600081156103bd57876103bf565b865b9050600082156103cf57876103d1565b885b90506000846001600160a01b0316633850c7bd6040518163ffffffff1660e01b815260040160e06040518083038186803b15801561040e57600080fd5b505afa158015610422573d6000803e3d6000fd5b505050506040513d601f19601f820116820180604052508101906104469190610e97565b505050505091505073__$9f7657269f07f7887db7d96b90c3a13a65$__63c49917d7604051806101c001604052808f8152602001866001600160a01b03168152602001856001600160a01b031681526020016104a1876107c3565b81526020016104af866107c3565b8152602001866001600160a01b031663313ce5676040518163ffffffff1660e01b815260040160206040518083038186803b1580156104ed57600080fd5b505afa158015610501573d6000803e3d6000fd5b505050506040513d601f19601f820116820180604052508101906105259190610f26565b60ff168152602001856001600160a01b031663313ce5676040518163ffffffff1660e01b815260040160206040518083038186803b15801561056657600080fd5b505afa15801561057a573d6000803e3d6000fd5b505050506040513d601f19601f8201168201806040525081019061059e9190610f26565b60ff16815260200187151581526020018a60020b81526020018960020b81526020018460020b8152602001886001600160a01b031663d0c93a7c6040518163ffffffff1660e01b815260040160206040518083038186803b15801561060257600080fd5b505afa158015610616573d6000803e3d6000fd5b505050506040513d601f19601f8201168201806040525081019061063a9190610de6565b60020b81526020018b62ffffff168152602001886001600160a01b03168152506040518263ffffffff1660e01b815260040161067691906110b0565b60006040518083038186803b15801561068e57600080fd5b505af41580156106a2573d6000803e3d6000fd5b505050506040513d6000823e601f3d908101601f191682016040526106ca9190810190610e00565b9d9c50505050505050505050505050565b600081602001516001600160a01b031682600001516001600160a01b03161061070357600080fd5b50805160208083015160409384015184516001600160a01b0394851681850152939091168385015262ffffff166060808401919091528351808403820181526080840185528051908301206001600160f81b031960a085015294901b6bffffffffffffffffffffffff191660a183015260b58201939093527fe34f199b19b2b4f47f68442619d555527d244f78a3297ea89325f843f87b8b5460d5808301919091528251808303909101815260f5909101909152805191012090565b4690565b606060006107d8836395d89b4160e01b6107fd565b90508051600014156107f5576107ed83610a25565b9150506107f8565b90505b919050565b60408051600481526024810182526020810180516001600160e01b03166001600160e01b031985161781529151815160609360009384936001600160a01b03891693919290918291908083835b602083106108695780518252601f19909201916020918201910161084a565b6001836020036101000a038019825116818451168082178552505050505050905001915050600060405180830381855afa9150503d80600081146108c9576040519150601f19603f3d011682016040523d82523d6000602084013e6108ce565b606091505b50915091508115806108df57508051155b156108fd576040518060200160405280600081525092505050610251565b80516020141561093557600081806020019051602081101561091e57600080fd5b5051905061092b81610a32565b9350505050610251565b604081511115610a0d5780806020019051602081101561095457600080fd5b810190808051604051939291908464010000000082111561097457600080fd5b90830190602082018581111561098957600080fd5b82516401000000008111828201881017156109a357600080fd5b82525081516020918201929091019080838360005b838110156109d05781810151838201526020016109b8565b50505050905090810190601f1680156109fd5780820380516001836020036101000a031916815260200191505b5060405250505092505050610251565b50506040805160208101909152600081529392505050565b60606107f5826006610b5a565b604080516020808252818301909252606091600091906020820181803683370190505090506000805b6020811015610abc576000858260208110610a7257fe5b1a60f81b90506001600160f81b0319811615610ab35780848481518110610a9557fe5b60200101906001600160f81b031916908160001a9053506001909201915b50600101610a5b565b5060008167ffffffffffffffff81118015610ad657600080fd5b506040519080825280601f01601f191660200182016040528015610b01576020820181803683370190505b50905060005b82811015610b5157838181518110610b1b57fe5b602001015160f81c60f81b828281518110610b3257fe5b60200101906001600160f81b031916908160001a905350600101610b07565b50949350505050565b606060028206158015610b6d5750600082115b8015610b7a575060288211155b610bcb576040805162461bcd60e51b815260206004820152601e60248201527f41646472657373537472696e675574696c3a20494e56414c49445f4c454e0000604482015290519081900360640190fd5b60008267ffffffffffffffff81118015610be457600080fd5b506040519080825280601f01601f191660200182016040528015610c0f576020820181803683370190505b5090506001600160a01b03841660005b60028504811015610cb357600860138290030282901c600f600482901c1660f082168203610c4c82610cbd565b868560020281518110610c5b57fe5b60200101906001600160f81b031916908160001a905350610c7b81610cbd565b868560020260010181518110610c8d57fe5b60200101906001600160f81b031916908160001a9053505060019092019150610c1f9050565b5090949350505050565b6000600a8260ff161015610cd857506030810160f81b6107f8565b506037810160f81b6107f8565b80516107f8816111fe565b8051600281900b81146107f857600080fd5b80516fffffffffffffffffffffffffffffffff811681146107f857600080fd5b805161ffff811681146107f857600080fd5b805162ffffff811681146107f857600080fd5b805160ff811681146107f857600080fd5b600060208284031215610d69578081fd5b8151610d74816111fe565b9392505050565b600080600060608486031215610d8f578182fd5b8335610d9a816111fe565b92506020840135610daa816111fe565b929592945050506040919091013590565b60008060408385031215610dcd578182fd5b8235610dd8816111fe565b946020939093013593505050565b600060208284031215610df7578081fd5b610d7482610cf0565b600060208284031215610e11578081fd5b815167ffffffffffffffff80821115610e28578283fd5b818401915084601f830112610e3b578283fd5b815181811115610e4757fe5b604051601f8201601f191681016020018381118282101715610e6557fe5b604052818152838201602001871015610e7c578485fd5b610e8d8260208301602087016111ce565b9695505050505050565b600080600080600080600060e0888a031215610eb1578283fd5b8751610ebc816111fe565b9650610eca60208901610cf0565b9550610ed860408901610d22565b9450610ee660608901610d22565b9350610ef460808901610d22565b9250610f0260a08901610d47565b915060c08801518015158114610f16578182fd5b8091505092959891949750929550565b600060208284031215610f37578081fd5b610d7482610d47565b6000806000806000806000806000806000806101808d8f031215610f62578485fd5b8c516bffffffffffffffffffffffff81168114610f7d578586fd5b9b50610f8b60208e01610ce5565b9a50610f9960408e01610ce5565b9950610fa760608e01610ce5565b9850610fb560808e01610d34565b9750610fc360a08e01610cf0565b9650610fd160c08e01610cf0565b9550610fdf60e08e01610d02565b94506101008d015193506101208d01519250610ffe6101408e01610d02565b915061100d6101608e01610d02565b90509295989b509295989b509295989b565b6001600160a01b03169052565b15159052565b60020b9052565b600081518084526110518160208601602086016111ce565b601f01601f19169290920160200192915050565b62ffffff169052565b60ff169052565b6001600160a01b0391909116815260200190565b901515815260200190565b90815260200190565b600060208252610d746020830184611039565b6000602082528251602083015260208301516110cf604084018261101f565b5060408301516110e2606084018261101f565b5060608301516101c08060808501526110ff6101e0850183611039565b91506080850151601f198584030160a086015261111c8382611039565b92505060a085015161113160c086018261106e565b5060c085015161114460e086018261106e565b5060e08501516101006111598187018361102c565b860151905061012061116d86820183611032565b860151905061014061118186820183611032565b860151905061016061119586820183611032565b86015190506101806111a986820183611032565b86015190506101a06111bd86820183611065565b8601519050610cb38583018261101f565b60005b838110156111e95781810151838201526020016111d1565b838111156111f8576000848401525b50505050565b6001600160a01b038116811461121357600080fd5b5056fea26469706673582212209e158dbae417468b97a2547da18eb6772052795b6028b33e745f79030e0ccf9564736f6c63430007060033",
  "linkReferences": {
    "@uniswap/v3-periphery/contracts/libraries/NFTDescriptor.sol": {
      "NFTDescriptor": [
        {
          "length": 20,
          "start": 1251
        }
      ]
    }
  },
  "deployedLinkReferences": {
    "@uniswap/v3-periphery/contracts/libraries/NFTDescriptor.sol": {
      "NFTDescriptor": [
        {
          "length": 20,
          "start": 1104
        }
      ]
    }
  }
}